{
  "transactions": [
    {
      "hash": "0xe251c619aa54fbeee2ae9dd9bebd468b9a6f6f1a65e993a2f19a766a52b496b3",
      "transactionType": "CALL",
      "contractName": null,
      "contractAddress": "0xc02aaa39b223fe8d0a0e5c4f27ead9083c756cc2",
      "function": "deposit()",
      "arguments": [],
      "transaction": {
        "from": "0x9965507d1a55bcc2695c58ba16fb37d819b0a4dc",
        "to": "0xc02aaa39b223fe8d0a0e5c4f27ead9083c756cc2",
        "gas": "0xf2ff",
        "value": "0xde0b6b3a7640000",
        "input": "0xd0e30db0",
        "nonce": "0x67",
        "chainId": "0x1",
        "accessList": null,
        "type": null
      },
      "additionalContracts": [],
      "isFixedGasLimit": false
    },
    {
      "hash": "0x434d4d0aaa4869107292c524f83ecd87d31a268cf64303085ed30f62518a9f7e",
      "transactionType": "CALL",
      "contractName": null,
      "contractAddress": "0xc02aaa39b223fe8d0a0e5c4f27ead9083c756cc2",
      "function": "transfer(address,uint256)",
      "arguments": [
        "0x81f4f47aa3bBd154171C877b4d70F6C9EeCAb216",
        "1000000000000000000"
      ],
      "transaction": {
        "from": "0x9965507d1a55bcc2695c58ba16fb37d819b0a4dc",
        "to": "0xc02aaa39b223fe8d0a0e5c4f27ead9083c756cc2",
        "gas": "0xa035",
        "value": "0x0",
        "input": "0xa9059cbb00000000000000000000000081f4f47aa3bbd154171c877b4d70f6c9eecab2160000000000000000000000000000000000000000000000000de0b6b3a7640000",
        "nonce": "0x68",
        "chainId": "0x1",
        "accessList": null,
        "type": null
      },
      "additionalContracts": [],
      "isFixedGasLimit": false
    },
    {
      "hash": "0x1c2d079f29d4d4a94c5deef00a327c1a7cbd813be65b9b1f7a0e4e2e44d692c8",
      "transactionType": "CALL",
      "contractName": null,
      "contractAddress": "0x81f4f47aa3bbd154171c877b4d70f6c9eecab216",
      "function": "mint(bool,(address,address,int8))",
      "arguments": [
        "false",
        "(0xdAC17F958D2ee523a2206206994597C13D831ec7, 0xC02aaA39b223FE8D0A0e5C4F27eAD9083C756Cc2, -1)"
      ],
      "transaction": {
        "from": "0x9965507d1a55bcc2695c58ba16fb37d819b0a4dc",
        "to": "0x81f4f47aa3bbd154171c877b4d70f6c9eecab216",
        "gas": "0x2cec0",
        "value": "0x0",
        "input": "0x94c050f80000000000000000000000000000000000000000000000000000000000000000000000000000000000000000dac17f958d2ee523a2206206994597c13d831ec7000000000000000000000000c02aaa39b223fe8d0a0e5c4f27ead9083c756cc2ffffffffffffffffffffffffffffffffffffffffffffffffffffffffffffffff",
        "nonce": "0x69",
        "chainId": "0x1",
        "accessList": null,
        "type": null
      },
      "additionalContracts": [],
      "isFixedGasLimit": false
    },
    {
      "hash": "0x8e5d530d235eadb48651148b98348f03469f1196727ec1d3dc1614286f5f3690",
      "transactionType": "CALL",
      "contractName": null,
      "contractAddress": "0x9965507d1a55bcc2695c58ba16fb37d819b0a4dc",
      "function": null,
      "arguments": null,
      "transaction": {
        "from": "0x9965507d1a55bcc2695c58ba16fb37d819b0a4dc",
        "to": "0x9965507d1a55bcc2695c58ba16fb37d819b0a4dc",
        "gas": "0x714d",
        "value": "0x1",
        "input": "0x",
        "nonce": "0x6a",
        "chainId": "0x1",
        "accessList": null,
        "type": null
      },
      "additionalContracts": [],
      "isFixedGasLimit": false
    },
    {
      "hash": "0xcc019474e79ecc1fa27fe69b15a9b97c217520c250aadaab89b439c4ba69f18d",
      "transactionType": "CALL",
      "contractName": null,
      "contractAddress": "0x9965507d1a55bcc2695c58ba16fb37d819b0a4dc",
      "function": null,
      "arguments": null,
      "transaction": {
        "from": "0x9965507d1a55bcc2695c58ba16fb37d819b0a4dc",
        "to": "0x9965507d1a55bcc2695c58ba16fb37d819b0a4dc",
        "gas": "0x714d",
        "value": "0x1",
        "input": "0x",
        "nonce": "0x6b",
        "chainId": "0x1",
        "accessList": null,
        "type": null
      },
      "additionalContracts": [],
      "isFixedGasLimit": false
    },
    {
      "hash": "0xb7a3cb7b581380c3d859e69ad5a2819366943db4dca14ef07c41446fe8e9876e",
      "transactionType": "CALL",
      "contractName": null,
      "contractAddress": "0x9965507d1a55bcc2695c58ba16fb37d819b0a4dc",
      "function": null,
      "arguments": null,
      "transaction": {
        "from": "0x9965507d1a55bcc2695c58ba16fb37d819b0a4dc",
        "to": "0x9965507d1a55bcc2695c58ba16fb37d819b0a4dc",
        "gas": "0x714d",
        "value": "0x1",
        "input": "0x",
        "nonce": "0x6c",
        "chainId": "0x1",
        "accessList": null,
        "type": null
      },
      "additionalContracts": [],
      "isFixedGasLimit": false
    },
    {
      "hash": "0xa3d271dd6ba147c7c5a5c5732ee5d84fdd8b44fd08892f48dd6196bd740dcf94",
      "transactionType": "CALL",
      "contractName": null,
      "contractAddress": "0x9965507d1a55bcc2695c58ba16fb37d819b0a4dc",
      "function": null,
      "arguments": null,
      "transaction": {
        "from": "0x9965507d1a55bcc2695c58ba16fb37d819b0a4dc",
        "to": "0x9965507d1a55bcc2695c58ba16fb37d819b0a4dc",
        "gas": "0x714d",
        "value": "0x1",
        "input": "0x",
        "nonce": "0x6d",
        "chainId": "0x1",
        "accessList": null,
        "type": null
      },
      "additionalContracts": [],
      "isFixedGasLimit": false
    },
    {
      "hash": "0x098f011d2a33e4aa7e2d101c1c5ac3aaba7db3310eb94536d308accab3aeb276",
      "transactionType": "CALL",
      "contractName": null,
      "contractAddress": "0x9965507d1a55bcc2695c58ba16fb37d819b0a4dc",
      "function": null,
      "arguments": null,
      "transaction": {
        "from": "0x9965507d1a55bcc2695c58ba16fb37d819b0a4dc",
        "to": "0x9965507d1a55bcc2695c58ba16fb37d819b0a4dc",
        "gas": "0x714d",
        "value": "0x1",
        "input": "0x",
        "nonce": "0x6e",
        "chainId": "0x1",
        "accessList": null,
        "type": null
      },
      "additionalContracts": [],
      "isFixedGasLimit": false
    },
    {
      "hash": "0x1be54d2e550dd66b734871092112ddd9c4f0e784486306bd02352e8dca76b77a",
      "transactionType": "CALL",
      "contractName": null,
      "contractAddress": "0x9965507d1a55bcc2695c58ba16fb37d819b0a4dc",
      "function": null,
      "arguments": null,
      "transaction": {
        "from": "0x9965507d1a55bcc2695c58ba16fb37d819b0a4dc",
        "to": "0x9965507d1a55bcc2695c58ba16fb37d819b0a4dc",
        "gas": "0x714d",
        "value": "0x1",
        "input": "0x",
        "nonce": "0x6f",
        "chainId": "0x1",
        "accessList": null,
        "type": null
      },
      "additionalContracts": [],
      "isFixedGasLimit": false
    },
    {
      "hash": "0x14c13feccc31c069dbf412686e7e848b9f846434618c1d7606b7aa4469f0495e",
      "transactionType": "CALL",
      "contractName": null,
      "contractAddress": "0x9965507d1a55bcc2695c58ba16fb37d819b0a4dc",
      "function": null,
      "arguments": null,
      "transaction": {
        "from": "0x9965507d1a55bcc2695c58ba16fb37d819b0a4dc",
        "to": "0x9965507d1a55bcc2695c58ba16fb37d819b0a4dc",
        "gas": "0x714d",
        "value": "0x1",
        "input": "0x",
        "nonce": "0x70",
        "chainId": "0x1",
        "accessList": null,
        "type": null
      },
      "additionalContracts": [],
      "isFixedGasLimit": false
    },
    {
      "hash": "0xae1d083793a3bc0ebd6a7db26a64dde5bcf7bb41f4e90a941c780d1d7def845c",
      "transactionType": "CALL",
      "contractName": null,
      "contractAddress": "0x9965507d1a55bcc2695c58ba16fb37d819b0a4dc",
      "function": null,
      "arguments": null,
      "transaction": {
        "from": "0x9965507d1a55bcc2695c58ba16fb37d819b0a4dc",
        "to": "0x9965507d1a55bcc2695c58ba16fb37d819b0a4dc",
        "gas": "0x714d",
        "value": "0x1",
        "input": "0x",
        "nonce": "0x71",
        "chainId": "0x1",
        "accessList": null,
        "type": null
      },
      "additionalContracts": [],
      "isFixedGasLimit": false
    },
    {
      "hash": "0x66766582cc393204082177ceb5cc6d55106122139069e327b36751d3d568be30",
      "transactionType": "CALL",
      "contractName": null,
      "contractAddress": "0x9965507d1a55bcc2695c58ba16fb37d819b0a4dc",
      "function": null,
      "arguments": null,
      "transaction": {
        "from": "0x9965507d1a55bcc2695c58ba16fb37d819b0a4dc",
        "to": "0x9965507d1a55bcc2695c58ba16fb37d819b0a4dc",
        "gas": "0x714d",
        "value": "0x1",
        "input": "0x",
        "nonce": "0x72",
        "chainId": "0x1",
        "accessList": null,
        "type": null
      },
      "additionalContracts": [],
      "isFixedGasLimit": false
    },
    {
      "hash": "0x89a14378fc2081ce033fd5ddd8192b6fbe44d08391c93862b469f4f2dd63c081",
      "transactionType": "CALL",
      "contractName": null,
      "contractAddress": "0x9965507d1a55bcc2695c58ba16fb37d819b0a4dc",
      "function": null,
      "arguments": null,
      "transaction": {
        "from": "0x9965507d1a55bcc2695c58ba16fb37d819b0a4dc",
        "to": "0x9965507d1a55bcc2695c58ba16fb37d819b0a4dc",
        "gas": "0x714d",
        "value": "0x1",
        "input": "0x",
        "nonce": "0x73",
        "chainId": "0x1",
        "accessList": null,
        "type": null
      },
      "additionalContracts": [],
      "isFixedGasLimit": false
    }
  ],
  "receipts": [
    {
      "status": "0x1",
      "cumulativeGasUsed": "0xafee",
      "logs": [
        {
          "address": "0xc02aaa39b223fe8d0a0e5c4f27ead9083c756cc2",
          "topics": [
            "0xe1fffcc4923d04b559f4d29a8bfc6cda04eb5b0d3c460751c2402c5c5cc9109c",
            "0x0000000000000000000000009965507d1a55bcc2695c58ba16fb37d819b0a4dc"
          ],
          "data": "0x0000000000000000000000000000000000000000000000000de0b6b3a7640000",
          "blockHash": "0xc6792b415b9703ee8f61608d38ae8d235010defff7c98a16e262795a2f291ed5",
          "blockNumber": "0x1370df0",
          "blockTimestamp": "0x66a7738d",
          "transactionHash": "0xe251c619aa54fbeee2ae9dd9bebd468b9a6f6f1a65e993a2f19a766a52b496b3",
          "transactionIndex": "0x0",
          "logIndex": "0x0",
          "removed": false
        }
      ],
      "logsBloom": "0x00000004000000000000000000000000000000000000000000000000000000000000000000000000000000000000000002000000080000000000000000000000000000000000000000000000000000000000000000008000000000008000000000000000000000000000000000000000000000000000000000000000000000000000000000000000000000000000000000000001000000000000000000000000000000000000000000000000000000000000000000000000000000000000000000000000800000000000000000000000000000000000000000000000000000000000200000000000000000000000000000000000000000400000000000000000",
      "type": "0x2",
      "transactionHash": "0xe251c619aa54fbeee2ae9dd9bebd468b9a6f6f1a65e993a2f19a766a52b496b3",
      "transactionIndex": "0x0",
      "blockHash": "0xc6792b415b9703ee8f61608d38ae8d235010defff7c98a16e262795a2f291ed5",
      "blockNumber": "0x1370df0",
      "gasUsed": "0xafee",
      "effectiveGasPrice": "0x258d677e",
      "blobGasPrice": "0x1",
      "from": "0x9965507d1a55bcc2695c58ba16fb37d819b0a4dc",
      "to": "0xc02aaa39b223fe8d0a0e5c4f27ead9083c756cc2",
      "contractAddress": null,
      "root": "0x0000000000000000000000000000000000000000000000000000000000000000"
    },
    {
      "status": "0x1",
      "cumulativeGasUsed": "0x73fe",
      "logs": [
        {
          "address": "0xc02aaa39b223fe8d0a0e5c4f27ead9083c756cc2",
          "topics": [
            "0xddf252ad1be2c89b69c2b068fc378daa952ba7f163c4a11628f55a4df523b3ef",
            "0x0000000000000000000000009965507d1a55bcc2695c58ba16fb37d819b0a4dc",
            "0x00000000000000000000000081f4f47aa3bbd154171c877b4d70f6c9eecab216"
          ],
          "data": "0x0000000000000000000000000000000000000000000000000de0b6b3a7640000",
          "blockHash": "0x7732167cd18ec1d6a6e51f9f349c881414d381b861efb9c9a5ea32d969b2438a",
          "blockNumber": "0x1370df1",
          "blockTimestamp": "0x66a7738e",
          "transactionHash": "0x434d4d0aaa4869107292c524f83ecd87d31a268cf64303085ed30f62518a9f7e",
          "transactionIndex": "0x0",
          "logIndex": "0x0",
          "removed": false
        }
      ],
      "logsBloom": "0x00000004000000000000000002000000000000000000000000000000000000000000000000000000000000000000000002000000080000000000000000000000000000000000010000000008000000000000000000008000000000000000000000000000000000000000000000000000000000000000000000000010000000000000000000000000000000000000000000000000000000000000000000000000000000000000000000000000000000000000000000000000000000000000000000000002800000000000000000000000000000080000000000000000000000000000200000000000000000000000000000000000000000000000000000000000",
      "type": "0x2",
      "transactionHash": "0x434d4d0aaa4869107292c524f83ecd87d31a268cf64303085ed30f62518a9f7e",
      "transactionIndex": "0x0",
      "blockHash": "0x7732167cd18ec1d6a6e51f9f349c881414d381b861efb9c9a5ea32d969b2438a",
      "blockNumber": "0x1370df1",
      "gasUsed": "0x73fe",
      "effectiveGasPrice": "0x2589239a",
      "blobGasPrice": "0x1",
      "from": "0x9965507d1a55bcc2695c58ba16fb37d819b0a4dc",
      "to": "0xc02aaa39b223fe8d0a0e5c4f27ead9083c756cc2",
      "contractAddress": null,
      "root": "0x0000000000000000000000000000000000000000000000000000000000000000"
    },
    {
      "status": "0x1",
      "cumulativeGasUsed": "0x27c5c",
      "logs": [
        {
          "address": "0x6c383ef7c9bf496b5c847530eb9c49a3ed6e4c56",
          "topics": [
            "0x82cbb5c96edba82f3c78b000d5e2fba7c1455691bdaed6a23044114b4ba7016b",
            "0x000000000000000000000000c02aaa39b223fe8d0a0e5c4f27ead9083c756cc2",
            "0x000000000000000000000000dac17f958d2ee523a2206206994597c13d831ec7",
            "0x0000000000000000000000000000000000000000000000000000000000000bb8"
          ],
          "data": "0xffffffffffffffffffffffffffffffffffffffffffffffffffffffffeb001668000000000000000000000000000000000000000000000000b43171fd925b5e0a00000000000000000000000000000000000000000000000000000000000007080000000000000000000000000000000000000000000000000000000000000000",
          "blockHash": "0x7732167cd18ec1d6a6e51f9f349c881414d381b861efb9c9a5ea32d969b2438a",
          "blockNumber": "0x1370df1",
          "blockTimestamp": "0x66a7738e",
          "transactionHash": "0x1c2d079f29d4d4a94c5deef00a327c1a7cbd813be65b9b1f7a0e4e2e44d692c8",
          "transactionIndex": "0x1",
          "logIndex": "0x1",
          "removed": false
        },
        {
          "address": "0x6c383ef7c9bf496b5c847530eb9c49a3ed6e4c56",
          "topics": [
            "0x751600799d4232b751da1b16a16cbaa54e27b2069fe5659d8936eb3a3a8efad7",
            "0x000000000000000000000000c02aaa39b223fe8d0a0e5c4f27ead9083c756cc2",
            "0x000000000000000000000000dac17f958d2ee523a2206206994597c13d831ec7",
            "0x0000000000000000000000000000000000000000000000000000000000000000"
          ],
          "data": "0xfffffffffffffffffffffffffffffffffffffffffffffffff40db40000000000",
          "blockHash": "0x7732167cd18ec1d6a6e51f9f349c881414d381b861efb9c9a5ea32d969b2438a",
          "blockNumber": "0x1370df1",
          "blockTimestamp": "0x66a7738e",
          "transactionHash": "0x1c2d079f29d4d4a94c5deef00a327c1a7cbd813be65b9b1f7a0e4e2e44d692c8",
          "transactionIndex": "0x1",
          "logIndex": "0x2",
          "removed": false
        },
        {
          "address": "0x81f4f47aa3bbd154171c877b4d70f6c9eecab216",
          "topics": [
            "0xc3d58168c5ae7397731d063d5bbf3d657854427343f4c083240f7aacaa2d0f62",
            "0x0000000000000000000000009965507d1a55bcc2695c58ba16fb37d819b0a4dc",
            "0x0000000000000000000000000000000000000000000000000000000000000000",
            "0x00000000000000000000000081f4f47aa3bbd154171c877b4d70f6c9eecab216"
          ],
          "data": "0x0000000000000000000000000000000000000000000000000000000000000001000000000000000000000000000000000000000000000000002789b4ff388ac2",
          "blockHash": "0x7732167cd18ec1d6a6e51f9f349c881414d381b861efb9c9a5ea32d969b2438a",
          "blockNumber": "0x1370df1",
          "blockTimestamp": "0x66a7738e",
          "transactionHash": "0x1c2d079f29d4d4a94c5deef00a327c1a7cbd813be65b9b1f7a0e4e2e44d692c8",
          "transactionIndex": "0x1",
          "logIndex": "0x3",
          "removed": false
        },
        {
          "address": "0x81f4f47aa3bbd154171c877b4d70f6c9eecab216",
          "topics": [
            "0xc3d58168c5ae7397731d063d5bbf3d657854427343f4c083240f7aacaa2d0f62",
            "0x0000000000000000000000009965507d1a55bcc2695c58ba16fb37d819b0a4dc",
            "0x0000000000000000000000000000000000000000000000000000000000000000",
            "0x0000000000000000000000009965507d1a55bcc2695c58ba16fb37d819b0a4dc"
          ],
          "data": "0x000000000000000000000000000000000000000000000000000000000000000100000000000000000000000000000000000000000000000006960d4c155be40a",
          "blockHash": "0x7732167cd18ec1d6a6e51f9f349c881414d381b861efb9c9a5ea32d969b2438a",
          "blockNumber": "0x1370df1",
          "blockTimestamp": "0x66a7738e",
          "transactionHash": "0x1c2d079f29d4d4a94c5deef00a327c1a7cbd813be65b9b1f7a0e4e2e44d692c8",
          "transactionIndex": "0x1",
          "logIndex": "0x4",
          "removed": false
        },
        {
          "address": "0x81f4f47aa3bbd154171c877b4d70f6c9eecab216",
          "topics": [
            "0x2ea082b0ce379480d9dfb0d7ab365e33def58ee2bee64887c13e531723b5c881",
            "0x0000000000000000000000000000000000000000000000000000000000000001"
          ],
          "data": "0x00000000000000000000000000000000000000000000000000000000000000000000000000000000000000000000000000000000000000000b3ddb3a890ba383000000000000000000000000000000000000000000000000000000000000000000000000000000000000000000000000000000000000000002a2db791e585c7d",
          "blockHash": "0x7732167cd18ec1d6a6e51f9f349c881414d381b861efb9c9a5ea32d969b2438a",
          "blockNumber": "0x1370df1",
          "blockTimestamp": "0x66a7738e",
          "transactionHash": "0x1c2d079f29d4d4a94c5deef00a327c1a7cbd813be65b9b1f7a0e4e2e44d692c8",
          "transactionIndex": "0x1",
          "logIndex": "0x5",
          "removed": false
        }
      ],
      "logsBloom": "0x000000040000000000000000028000000000200000000002000000000000400000000000000000000000000004000000000000000010000000000000000420000000000000000100000000000000008000000000000480000000000000000000100000000200000000000000000008000000002000000000000000000000000040000000000000000000004000040000010000000000000000000020400000000000001000000000000000000000000000000000000000000000000000000040020000008000000000000000000800000000000a0008000000000100000060000020000000000004000000000000000000000040000000000000080000000000",
      "type": "0x2",
      "transactionHash": "0x1c2d079f29d4d4a94c5deef00a327c1a7cbd813be65b9b1f7a0e4e2e44d692c8",
      "transactionIndex": "0x1",
      "blockHash": "0x7732167cd18ec1d6a6e51f9f349c881414d381b861efb9c9a5ea32d969b2438a",
      "blockNumber": "0x1370df1",
      "gasUsed": "0x2085e",
      "effectiveGasPrice": "0x2589239a",
      "blobGasPrice": "0x1",
      "from": "0x9965507d1a55bcc2695c58ba16fb37d819b0a4dc",
      "to": "0x81f4f47aa3bbd154171c877b4d70f6c9eecab216",
      "contractAddress": null,
      "root": "0x0000000000000000000000000000000000000000000000000000000000000000"
    },
    {
      "status": "0x1",
      "cumulativeGasUsed": "0x5208",
      "logs": [],
      "logsBloom": "0x00000000000000000000000000000000000000000000000000000000000000000000000000000000000000000000000000000000000000000000000000000000000000000000000000000000000000000000000000000000000000000000000000000000000000000000000000000000000000000000000000000000000000000000000000000000000000000000000000000000000000000000000000000000000000000000000000000000000000000000000000000000000000000000000000000000000000000000000000000000000000000000000000000000000000000000000000000000000000000000000000000000000000000000000000000000",
      "type": "0x2",
      "transactionHash": "0x8e5d530d235eadb48651148b98348f03469f1196727ec1d3dc1614286f5f3690",
      "transactionIndex": "0x0",
      "blockHash": "0xc9a361df11a165b0ef34d2fe3ca03dc1b210961c5921e0ea827a3e1dc4d9cdf9",
      "blockNumber": "0x1370df2",
      "gasUsed": "0x5208",
      "effectiveGasPrice": "0x25856f53",
      "blobGasPrice": "0x1",
      "from": "0x9965507d1a55bcc2695c58ba16fb37d819b0a4dc",
      "to": "0x9965507d1a55bcc2695c58ba16fb37d819b0a4dc",
      "contractAddress": null,
      "root": "0x0000000000000000000000000000000000000000000000000000000000000000"
    },
    {
      "status": "0x1",
      "cumulativeGasUsed": "0xa410",
      "logs": [],
      "logsBloom": "0x00000000000000000000000000000000000000000000000000000000000000000000000000000000000000000000000000000000000000000000000000000000000000000000000000000000000000000000000000000000000000000000000000000000000000000000000000000000000000000000000000000000000000000000000000000000000000000000000000000000000000000000000000000000000000000000000000000000000000000000000000000000000000000000000000000000000000000000000000000000000000000000000000000000000000000000000000000000000000000000000000000000000000000000000000000000",
      "type": "0x2",
      "transactionHash": "0xcc019474e79ecc1fa27fe69b15a9b97c217520c250aadaab89b439c4ba69f18d",
      "transactionIndex": "0x1",
      "blockHash": "0xc9a361df11a165b0ef34d2fe3ca03dc1b210961c5921e0ea827a3e1dc4d9cdf9",
      "blockNumber": "0x1370df2",
      "gasUsed": "0x5208",
      "effectiveGasPrice": "0x25856f53",
      "blobGasPrice": "0x1",
      "from": "0x9965507d1a55bcc2695c58ba16fb37d819b0a4dc",
      "to": "0x9965507d1a55bcc2695c58ba16fb37d819b0a4dc",
      "contractAddress": null,
      "root": "0x0000000000000000000000000000000000000000000000000000000000000000"
    },
    {
      "status": "0x1",
      "cumulativeGasUsed": "0x5208",
      "logs": [],
      "logsBloom": "0x00000000000000000000000000000000000000000000000000000000000000000000000000000000000000000000000000000000000000000000000000000000000000000000000000000000000000000000000000000000000000000000000000000000000000000000000000000000000000000000000000000000000000000000000000000000000000000000000000000000000000000000000000000000000000000000000000000000000000000000000000000000000000000000000000000000000000000000000000000000000000000000000000000000000000000000000000000000000000000000000000000000000000000000000000000000",
      "type": "0x2",
      "transactionHash": "0xb7a3cb7b581380c3d859e69ad5a2819366943db4dca14ef07c41446fe8e9876e",
      "transactionIndex": "0x0",
      "blockHash": "0x3fef3d9c959fd07e3afa4136211f0623a51cc00edd045646be1b1c615cccfabc",
      "blockNumber": "0x1370df3",
      "gasUsed": "0x5208",
      "effectiveGasPrice": "0x25822985",
      "blobGasPrice": "0x1",
      "from": "0x9965507d1a55bcc2695c58ba16fb37d819b0a4dc",
      "to": "0x9965507d1a55bcc2695c58ba16fb37d819b0a4dc",
      "contractAddress": null,
      "root": "0x0000000000000000000000000000000000000000000000000000000000000000"
    },
    {
      "status": "0x1",
      "cumulativeGasUsed": "0x5208",
      "logs": [],
      "logsBloom": "0x00000000000000000000000000000000000000000000000000000000000000000000000000000000000000000000000000000000000000000000000000000000000000000000000000000000000000000000000000000000000000000000000000000000000000000000000000000000000000000000000000000000000000000000000000000000000000000000000000000000000000000000000000000000000000000000000000000000000000000000000000000000000000000000000000000000000000000000000000000000000000000000000000000000000000000000000000000000000000000000000000000000000000000000000000000000",
      "type": "0x2",
      "transactionHash": "0xa3d271dd6ba147c7c5a5c5732ee5d84fdd8b44fd08892f48dd6196bd740dcf94",
      "transactionIndex": "0x0",
      "blockHash": "0x05b7920547816976eff99f89f81b9e720676bfd668314bab914a14c3132d3da3",
      "blockNumber": "0x1370df4",
      "gasUsed": "0x5208",
      "effectiveGasPrice": "0x257f4b1e",
      "blobGasPrice": "0x1",
      "from": "0x9965507d1a55bcc2695c58ba16fb37d819b0a4dc",
      "to": "0x9965507d1a55bcc2695c58ba16fb37d819b0a4dc",
      "contractAddress": null,
      "root": "0x0000000000000000000000000000000000000000000000000000000000000000"
    },
    {
      "status": "0x1",
      "cumulativeGasUsed": "0x5208",
      "logs": [],
      "logsBloom": "0x00000000000000000000000000000000000000000000000000000000000000000000000000000000000000000000000000000000000000000000000000000000000000000000000000000000000000000000000000000000000000000000000000000000000000000000000000000000000000000000000000000000000000000000000000000000000000000000000000000000000000000000000000000000000000000000000000000000000000000000000000000000000000000000000000000000000000000000000000000000000000000000000000000000000000000000000000000000000000000000000000000000000000000000000000000000",
      "type": "0x2",
      "transactionHash": "0x098f011d2a33e4aa7e2d101c1c5ac3aaba7db3310eb94536d308accab3aeb276",
      "transactionIndex": "0x0",
      "blockHash": "0x27b95bcf230f8bc547311bf42e9b8f02e0a0999bd46b43c570caf93a9f9b9f02",
      "blockNumber": "0x1370df5",
      "gasUsed": "0x5208",
      "effectiveGasPrice": "0x257cc863",
      "blobGasPrice": "0x1",
      "from": "0x9965507d1a55bcc2695c58ba16fb37d819b0a4dc",
      "to": "0x9965507d1a55bcc2695c58ba16fb37d819b0a4dc",
      "contractAddress": null,
      "root": "0x0000000000000000000000000000000000000000000000000000000000000000"
    },
    {
      "status": "0x1",
      "cumulativeGasUsed": "0x5208",
      "logs": [],
      "logsBloom": "0x00000000000000000000000000000000000000000000000000000000000000000000000000000000000000000000000000000000000000000000000000000000000000000000000000000000000000000000000000000000000000000000000000000000000000000000000000000000000000000000000000000000000000000000000000000000000000000000000000000000000000000000000000000000000000000000000000000000000000000000000000000000000000000000000000000000000000000000000000000000000000000000000000000000000000000000000000000000000000000000000000000000000000000000000000000000",
      "type": "0x2",
      "transactionHash": "0x1be54d2e550dd66b734871092112ddd9c4f0e784486306bd02352e8dca76b77a",
      "transactionIndex": "0x0",
      "blockHash": "0x0f391a446b52f7be9b5a754a719e808520b46bfdbeadbbb13904f406f4ee679c",
      "blockNumber": "0x1370df6",
      "gasUsed": "0x5208",
      "effectiveGasPrice": "0x257a95e3",
      "blobGasPrice": "0x1",
      "from": "0x9965507d1a55bcc2695c58ba16fb37d819b0a4dc",
      "to": "0x9965507d1a55bcc2695c58ba16fb37d819b0a4dc",
      "contractAddress": null,
      "root": "0x0000000000000000000000000000000000000000000000000000000000000000"
    },
    {
      "status": "0x1",
      "cumulativeGasUsed": "0x5208",
      "logs": [],
      "logsBloom": "0x00000000000000000000000000000000000000000000000000000000000000000000000000000000000000000000000000000000000000000000000000000000000000000000000000000000000000000000000000000000000000000000000000000000000000000000000000000000000000000000000000000000000000000000000000000000000000000000000000000000000000000000000000000000000000000000000000000000000000000000000000000000000000000000000000000000000000000000000000000000000000000000000000000000000000000000000000000000000000000000000000000000000000000000000000000000",
      "type": "0x2",
      "transactionHash": "0x14c13feccc31c069dbf412686e7e848b9f846434618c1d7606b7aa4469f0495e",
      "transactionIndex": "0x0",
      "blockHash": "0xce24f7d6503d828873150b79ce94c7c076e1ee194ac47c46d20eb3d735ceefc0",
      "blockNumber": "0x1370df7",
      "gasUsed": "0x5208",
      "effectiveGasPrice": "0x2578a99a",
      "blobGasPrice": "0x1",
      "from": "0x9965507d1a55bcc2695c58ba16fb37d819b0a4dc",
      "to": "0x9965507d1a55bcc2695c58ba16fb37d819b0a4dc",
      "contractAddress": null,
      "root": "0x0000000000000000000000000000000000000000000000000000000000000000"
    },
    {
      "status": "0x1",
      "cumulativeGasUsed": "0x5208",
      "logs": [],
      "logsBloom": "0x00000000000000000000000000000000000000000000000000000000000000000000000000000000000000000000000000000000000000000000000000000000000000000000000000000000000000000000000000000000000000000000000000000000000000000000000000000000000000000000000000000000000000000000000000000000000000000000000000000000000000000000000000000000000000000000000000000000000000000000000000000000000000000000000000000000000000000000000000000000000000000000000000000000000000000000000000000000000000000000000000000000000000000000000000000000",
      "type": "0x2",
      "transactionHash": "0xae1d083793a3bc0ebd6a7db26a64dde5bcf7bb41f4e90a941c780d1d7def845c",
      "transactionIndex": "0x0",
      "blockHash": "0x453b34236d4a28ec0d80c7e8ec56df1d0a6b5ddebae1fe5d4e211bb0cb028c7b",
      "blockNumber": "0x1370df8",
      "gasUsed": "0x5208",
      "effectiveGasPrice": "0x2576fac4",
      "blobGasPrice": "0x1",
      "from": "0x9965507d1a55bcc2695c58ba16fb37d819b0a4dc",
      "to": "0x9965507d1a55bcc2695c58ba16fb37d819b0a4dc",
      "contractAddress": null,
      "root": "0x0000000000000000000000000000000000000000000000000000000000000000"
    },
    {
      "status": "0x1",
      "cumulativeGasUsed": "0xa410",
      "logs": [],
      "logsBloom": "0x00000000000000000000000000000000000000000000000000000000000000000000000000000000000000000000000000000000000000000000000000000000000000000000000000000000000000000000000000000000000000000000000000000000000000000000000000000000000000000000000000000000000000000000000000000000000000000000000000000000000000000000000000000000000000000000000000000000000000000000000000000000000000000000000000000000000000000000000000000000000000000000000000000000000000000000000000000000000000000000000000000000000000000000000000000000",
      "type": "0x2",
      "transactionHash": "0x66766582cc393204082177ceb5cc6d55106122139069e327b36751d3d568be30",
      "transactionIndex": "0x1",
      "blockHash": "0x453b34236d4a28ec0d80c7e8ec56df1d0a6b5ddebae1fe5d4e211bb0cb028c7b",
      "blockNumber": "0x1370df8",
      "gasUsed": "0x5208",
      "effectiveGasPrice": "0x2576fac4",
      "blobGasPrice": "0x1",
      "from": "0x9965507d1a55bcc2695c58ba16fb37d819b0a4dc",
      "to": "0x9965507d1a55bcc2695c58ba16fb37d819b0a4dc",
      "contractAddress": null,
      "root": "0x0000000000000000000000000000000000000000000000000000000000000000"
    },
    {
      "status": "0x1",
      "cumulativeGasUsed": "0xf618",
      "logs": [],
      "logsBloom": "0x00000000000000000000000000000000000000000000000000000000000000000000000000000000000000000000000000000000000000000000000000000000000000000000000000000000000000000000000000000000000000000000000000000000000000000000000000000000000000000000000000000000000000000000000000000000000000000000000000000000000000000000000000000000000000000000000000000000000000000000000000000000000000000000000000000000000000000000000000000000000000000000000000000000000000000000000000000000000000000000000000000000000000000000000000000000",
      "type": "0x2",
      "transactionHash": "0x89a14378fc2081ce033fd5ddd8192b6fbe44d08391c93862b469f4f2dd63c081",
      "transactionIndex": "0x2",
      "blockHash": "0x453b34236d4a28ec0d80c7e8ec56df1d0a6b5ddebae1fe5d4e211bb0cb028c7b",
      "blockNumber": "0x1370df8",
      "gasUsed": "0x5208",
      "effectiveGasPrice": "0x2576fac4",
      "blobGasPrice": "0x1",
      "from": "0x9965507d1a55bcc2695c58ba16fb37d819b0a4dc",
      "to": "0x9965507d1a55bcc2695c58ba16fb37d819b0a4dc",
      "contractAddress": null,
      "root": "0x0000000000000000000000000000000000000000000000000000000000000000"
    }
  ],
  "libraries": [],
  "pending": [],
  "returns": {},
  "timestamp": 1722250269,
  "chain": 1,
  "commit": "cef7fa7"
}