{
  "transactions": [
    {
      "hash": "0xbdb4fb94e827c20ae7fb7d7b54201bcff56bf9e9bacd5c9202502cc4c965836e",
      "transactionType": "CALL",
      "contractName": null,
      "contractAddress": "0x2aa12f98795e7a65072950afba9d1e023d398241",
      "function": "lPerMint(uint256)",
      "arguments": [
        "1"
      ],
      "transaction": {
        "from": "0x9965507d1a55bcc2695c58ba16fb37d819b0a4dc",
        "to": "0x2aa12f98795e7a65072950afba9d1e023d398241",
        "gas": "0x2c8f9",
        "value": "0x0",
        "input": "0x460028c90000000000000000000000000000000000000000000000000000000000000001",
        "nonce": "0x95",
        "chainId": "0x1",
        "accessList": null,
        "type": null
      },
      "additionalContracts": [],
      "isFixedGasLimit": false
    }
  ],
  "receipts": [
    {
      "status": "0x1",
      "cumulativeGasUsed": "0x2042f",
      "logs": [
        {
          "address": "0x2aa12f98795e7a65072950afba9d1e023d398241",
          "topics": [
            "0xddf252ad1be2c89b69c2b068fc378daa952ba7f163c4a11628f55a4df523b3ef",
            "0x0000000000000000000000000000000000000000000000000000000000000000",
            "0x0000000000000000000000009965507d1a55bcc2695c58ba16fb37d819b0a4dc"
          ],
          "data": "0x000000000000000000000000000000000000000000000000083fa1d333ef735b",
          "blockHash": "0xc7f159e20f2baaba38ff8856cb10e75cc53ef4ab2d309ff54e132f8b394b9c14",
          "blockNumber": "0x1370e10",
          "blockTimestamp": "0x66a7ae19",
          "transactionHash": "0xbdb4fb94e827c20ae7fb7d7b54201bcff56bf9e9bacd5c9202502cc4c965836e",
          "transactionIndex": "0x0",
          "logIndex": "0x0",
          "removed": false
        }
      ],
      "logsBloom": "0x00000004000000000000000000000000000000000000000000000000000400000000000000000000000000000000000000000000000000000000000000000000000000000000000000000008000000000000000000008000000000000000000000004000020000000000000000000800000000000000000000000010000000000000000000000000000000000000000000000000000000000000080000000000000000000000000000000000000000000000000000000000000000000000000000000002800000000000000000000000000000000000000000000000000020000000000000000000000000000000000000000000000000000000000000000000",
      "type": "0x2",
      "transactionHash": "0xbdb4fb94e827c20ae7fb7d7b54201bcff56bf9e9bacd5c9202502cc4c965836e",
      "transactionIndex": "0x0",
      "blockHash": "0xc7f159e20f2baaba38ff8856cb10e75cc53ef4ab2d309ff54e132f8b394b9c14",
      "blockNumber": "0x1370e10",
      "gasUsed": "0x2042f",
      "effectiveGasPrice": "0x256ba9be",
      "blobGasPrice": "0x1",
      "from": "0x9965507d1a55bcc2695c58ba16fb37d819b0a4dc",
      "to": "0x2aa12f98795e7a65072950afba9d1e023d398241",
      "contractAddress": null,
      "root": "0x0000000000000000000000000000000000000000000000000000000000000000"
    }
  ],
  "libraries": [],
  "pending": [],
  "returns": {},
  "timestamp": 1722265253,
  "chain": 1,
  "commit": "cef7fa7"
}