{
  "transactions": [
    {
      "hash": "0xe3e41a3221a582a6b9050b2a6d9d5794e9457a96a01a8f42363762de78e79888",
      "transactionType": "CALL",
      "contractName": null,
      "contractAddress": "0xc02aaa39b223fe8d0a0e5c4f27ead9083c756cc2",
      "function": "deposit()",
      "arguments": [],
      "transaction": {
        "from": "0x9965507d1a55bcc2695c58ba16fb37d819b0a4dc",
        "to": "0xc02aaa39b223fe8d0a0e5c4f27ead9083c756cc2",
        "gas": "0xf2ff",
        "value": "0xde0b6b3a7640000",
        "input": "0xd0e30db0",
        "nonce": "0x74",
        "chainId": "0x1",
        "accessList": null,
        "type": null
      },
      "additionalContracts": [],
      "isFixedGasLimit": false
    },
    {
      "hash": "0x4dbd07878f54f299f4e10f210ea476585ce23208815978bc8a6a083a4e869d91",
      "transactionType": "CALL",
      "contractName": null,
      "contractAddress": "0xc02aaa39b223fe8d0a0e5c4f27ead9083c756cc2",
      "function": "transfer(address,uint256)",
      "arguments": [
        "0x81f4f47aa3bBd154171C877b4d70F6C9EeCAb216",
        "1000000000000000000"
      ],
      "transaction": {
        "from": "0x9965507d1a55bcc2695c58ba16fb37d819b0a4dc",
        "to": "0xc02aaa39b223fe8d0a0e5c4f27ead9083c756cc2",
        "gas": "0xa035",
        "value": "0x0",
        "input": "0xa9059cbb00000000000000000000000081f4f47aa3bbd154171c877b4d70f6c9eecab2160000000000000000000000000000000000000000000000000de0b6b3a7640000",
        "nonce": "0x75",
        "chainId": "0x1",
        "accessList": null,
        "type": null
      },
      "additionalContracts": [],
      "isFixedGasLimit": false
    },
    {
      "hash": "0x6881ca10dd4604b02d7f5a293fe83c8e42874671f192c0045934bb16707e2584",
      "transactionType": "CALL",
      "contractName": null,
      "contractAddress": "0x81f4f47aa3bbd154171c877b4d70f6c9eecab216",
      "function": "mint(bool,(address,address,int8))",
      "arguments": [
        "false",
        "(0xdAC17F958D2ee523a2206206994597C13D831ec7, 0xC02aaA39b223FE8D0A0e5C4F27eAD9083C756Cc2, -1)"
      ],
      "transaction": {
        "from": "0x9965507d1a55bcc2695c58ba16fb37d819b0a4dc",
        "to": "0x81f4f47aa3bbd154171c877b4d70f6c9eecab216",
        "gas": "0x2cec0",
        "value": "0x0",
        "input": "0x94c050f80000000000000000000000000000000000000000000000000000000000000000000000000000000000000000dac17f958d2ee523a2206206994597c13d831ec7000000000000000000000000c02aaa39b223fe8d0a0e5c4f27ead9083c756cc2ffffffffffffffffffffffffffffffffffffffffffffffffffffffffffffffff",
        "nonce": "0x76",
        "chainId": "0x1",
        "accessList": null,
        "type": null
      },
      "additionalContracts": [],
      "isFixedGasLimit": false
    },
    {
      "hash": "0x4dcd5bc3ccc157dbe1405115fd28713ef18a9a47139588692bf9bdd35cd9af0b",
      "transactionType": "CALL",
      "contractName": null,
      "contractAddress": "0x9965507d1a55bcc2695c58ba16fb37d819b0a4dc",
      "function": null,
      "arguments": null,
      "transaction": {
        "from": "0x9965507d1a55bcc2695c58ba16fb37d819b0a4dc",
        "to": "0x9965507d1a55bcc2695c58ba16fb37d819b0a4dc",
        "gas": "0x714d",
        "value": "0x1",
        "input": "0x",
        "nonce": "0x77",
        "chainId": "0x1",
        "accessList": null,
        "type": null
      },
      "additionalContracts": [],
      "isFixedGasLimit": false
    },
    {
      "hash": "0x090cdd6b3bd0bf09fdfa160a18ffff247f260c414c82b0908647bd72fcdeac34",
      "transactionType": "CALL",
      "contractName": null,
      "contractAddress": "0x9965507d1a55bcc2695c58ba16fb37d819b0a4dc",
      "function": null,
      "arguments": null,
      "transaction": {
        "from": "0x9965507d1a55bcc2695c58ba16fb37d819b0a4dc",
        "to": "0x9965507d1a55bcc2695c58ba16fb37d819b0a4dc",
        "gas": "0x714d",
        "value": "0x1",
        "input": "0x",
        "nonce": "0x78",
        "chainId": "0x1",
        "accessList": null,
        "type": null
      },
      "additionalContracts": [],
      "isFixedGasLimit": false
    },
    {
      "hash": "0x57c950049e49f769362a87c957044ad39766df401cdf03e7c6ac699b0f059c4d",
      "transactionType": "CALL",
      "contractName": null,
      "contractAddress": "0x9965507d1a55bcc2695c58ba16fb37d819b0a4dc",
      "function": null,
      "arguments": null,
      "transaction": {
        "from": "0x9965507d1a55bcc2695c58ba16fb37d819b0a4dc",
        "to": "0x9965507d1a55bcc2695c58ba16fb37d819b0a4dc",
        "gas": "0x714d",
        "value": "0x1",
        "input": "0x",
        "nonce": "0x79",
        "chainId": "0x1",
        "accessList": null,
        "type": null
      },
      "additionalContracts": [],
      "isFixedGasLimit": false
    },
    {
      "hash": "0x19874c72e45992662afeb1c025e6f9ef95ea2c7354b20737f026edd60bf6ff6e",
      "transactionType": "CALL",
      "contractName": null,
      "contractAddress": "0x9965507d1a55bcc2695c58ba16fb37d819b0a4dc",
      "function": null,
      "arguments": null,
      "transaction": {
        "from": "0x9965507d1a55bcc2695c58ba16fb37d819b0a4dc",
        "to": "0x9965507d1a55bcc2695c58ba16fb37d819b0a4dc",
        "gas": "0x714d",
        "value": "0x1",
        "input": "0x",
        "nonce": "0x7a",
        "chainId": "0x1",
        "accessList": null,
        "type": null
      },
      "additionalContracts": [],
      "isFixedGasLimit": false
    },
    {
      "hash": "0xdb5ecfac01f3ee52823a10426d3551ef400df55d5eb89ff9e5049320f54d43f0",
      "transactionType": "CALL",
      "contractName": null,
      "contractAddress": "0x9965507d1a55bcc2695c58ba16fb37d819b0a4dc",
      "function": null,
      "arguments": null,
      "transaction": {
        "from": "0x9965507d1a55bcc2695c58ba16fb37d819b0a4dc",
        "to": "0x9965507d1a55bcc2695c58ba16fb37d819b0a4dc",
        "gas": "0x714d",
        "value": "0x1",
        "input": "0x",
        "nonce": "0x7b",
        "chainId": "0x1",
        "accessList": null,
        "type": null
      },
      "additionalContracts": [],
      "isFixedGasLimit": false
    },
    {
      "hash": "0xa106e61ed3dfd5c2fc4dfa5063ca549a9f4a565439a804c9c8f24182c19c6da9",
      "transactionType": "CALL",
      "contractName": null,
      "contractAddress": "0x9965507d1a55bcc2695c58ba16fb37d819b0a4dc",
      "function": null,
      "arguments": null,
      "transaction": {
        "from": "0x9965507d1a55bcc2695c58ba16fb37d819b0a4dc",
        "to": "0x9965507d1a55bcc2695c58ba16fb37d819b0a4dc",
        "gas": "0x714d",
        "value": "0x1",
        "input": "0x",
        "nonce": "0x7c",
        "chainId": "0x1",
        "accessList": null,
        "type": null
      },
      "additionalContracts": [],
      "isFixedGasLimit": false
    },
    {
      "hash": "0xe5bff018c5e84eafac1c66978c6efee2978fb2bdd904e049ff538680b91865a0",
      "transactionType": "CALL",
      "contractName": null,
      "contractAddress": "0x9965507d1a55bcc2695c58ba16fb37d819b0a4dc",
      "function": null,
      "arguments": null,
      "transaction": {
        "from": "0x9965507d1a55bcc2695c58ba16fb37d819b0a4dc",
        "to": "0x9965507d1a55bcc2695c58ba16fb37d819b0a4dc",
        "gas": "0x714d",
        "value": "0x1",
        "input": "0x",
        "nonce": "0x7d",
        "chainId": "0x1",
        "accessList": null,
        "type": null
      },
      "additionalContracts": [],
      "isFixedGasLimit": false
    },
    {
      "hash": "0x0858302168851dcf5f4d281d9c56d7786ce4aadfd93f0c6b2b0adff376ba2bea",
      "transactionType": "CALL",
      "contractName": null,
      "contractAddress": "0x9965507d1a55bcc2695c58ba16fb37d819b0a4dc",
      "function": null,
      "arguments": null,
      "transaction": {
        "from": "0x9965507d1a55bcc2695c58ba16fb37d819b0a4dc",
        "to": "0x9965507d1a55bcc2695c58ba16fb37d819b0a4dc",
        "gas": "0x714d",
        "value": "0x1",
        "input": "0x",
        "nonce": "0x7e",
        "chainId": "0x1",
        "accessList": null,
        "type": null
      },
      "additionalContracts": [],
      "isFixedGasLimit": false
    },
    {
      "hash": "0x815773273533e8fb7a9e2eee484706c291fc5c462ef037422d58b8f1ca50645b",
      "transactionType": "CALL",
      "contractName": null,
      "contractAddress": "0x9965507d1a55bcc2695c58ba16fb37d819b0a4dc",
      "function": null,
      "arguments": null,
      "transaction": {
        "from": "0x9965507d1a55bcc2695c58ba16fb37d819b0a4dc",
        "to": "0x9965507d1a55bcc2695c58ba16fb37d819b0a4dc",
        "gas": "0x714d",
        "value": "0x1",
        "input": "0x",
        "nonce": "0x7f",
        "chainId": "0x1",
        "accessList": null,
        "type": null
      },
      "additionalContracts": [],
      "isFixedGasLimit": false
    },
    {
      "hash": "0xdb65148d48baca3bf8fe57d91276fd07f8f45324fc06b8941904576fba63e288",
      "transactionType": "CALL",
      "contractName": null,
      "contractAddress": "0x9965507d1a55bcc2695c58ba16fb37d819b0a4dc",
      "function": null,
      "arguments": null,
      "transaction": {
        "from": "0x9965507d1a55bcc2695c58ba16fb37d819b0a4dc",
        "to": "0x9965507d1a55bcc2695c58ba16fb37d819b0a4dc",
        "gas": "0x714d",
        "value": "0x1",
        "input": "0x",
        "nonce": "0x80",
        "chainId": "0x1",
        "accessList": null,
        "type": null
      },
      "additionalContracts": [],
      "isFixedGasLimit": false
    }
  ],
  "receipts": [
    {
      "status": "0x1",
      "cumulativeGasUsed": "0xafee",
      "logs": [
        {
          "address": "0xc02aaa39b223fe8d0a0e5c4f27ead9083c756cc2",
          "topics": [
            "0xe1fffcc4923d04b559f4d29a8bfc6cda04eb5b0d3c460751c2402c5c5cc9109c",
            "0x0000000000000000000000009965507d1a55bcc2695c58ba16fb37d819b0a4dc"
          ],
          "data": "0x0000000000000000000000000000000000000000000000000de0b6b3a7640000",
          "blockHash": "0x50b85408e541493ff06dfd5f00a12c35764bb1d03b637c16cab0fb7007dbe9db",
          "blockNumber": "0x1370df9",
          "blockTimestamp": "0x66a77399",
          "transactionHash": "0xe3e41a3221a582a6b9050b2a6d9d5794e9457a96a01a8f42363762de78e79888",
          "transactionIndex": "0x0",
          "logIndex": "0x0",
          "removed": false
        }
      ],
      "logsBloom": "0x00000004000000000000000000000000000000000000000000000000000000000000000000000000000000000000000002000000080000000000000000000000000000000000000000000000000000000000000000008000000000008000000000000000000000000000000000000000000000000000000000000000000000000000000000000000000000000000000000000001000000000000000000000000000000000000000000000000000000000000000000000000000000000000000000000000800000000000000000000000000000000000000000000000000000000000200000000000000000000000000000000000000000400000000000000000",
      "type": "0x2",
      "transactionHash": "0xe3e41a3221a582a6b9050b2a6d9d5794e9457a96a01a8f42363762de78e79888",
      "transactionIndex": "0x0",
      "blockHash": "0x50b85408e541493ff06dfd5f00a12c35764bb1d03b637c16cab0fb7007dbe9db",
      "blockNumber": "0x1370df9",
      "gasUsed": "0xafee",
      "effectiveGasPrice": "0x257582c4",
      "blobGasPrice": "0x1",
      "from": "0x9965507d1a55bcc2695c58ba16fb37d819b0a4dc",
      "to": "0xc02aaa39b223fe8d0a0e5c4f27ead9083c756cc2",
      "contractAddress": null,
      "root": "0x0000000000000000000000000000000000000000000000000000000000000000"
    },
    {
      "status": "0x1",
      "cumulativeGasUsed": "0x73fe",
      "logs": [
        {
          "address": "0xc02aaa39b223fe8d0a0e5c4f27ead9083c756cc2",
          "topics": [
            "0xddf252ad1be2c89b69c2b068fc378daa952ba7f163c4a11628f55a4df523b3ef",
            "0x0000000000000000000000009965507d1a55bcc2695c58ba16fb37d819b0a4dc",
            "0x00000000000000000000000081f4f47aa3bbd154171c877b4d70f6c9eecab216"
          ],
          "data": "0x0000000000000000000000000000000000000000000000000de0b6b3a7640000",
          "blockHash": "0x904c053a29c56b9f4a65e50dbd03028582394ca32f6e6479b74d4845d949a2a4",
          "blockNumber": "0x1370dfa",
          "blockTimestamp": "0x66a7739a",
          "transactionHash": "0x4dbd07878f54f299f4e10f210ea476585ce23208815978bc8a6a083a4e869d91",
          "transactionIndex": "0x0",
          "logIndex": "0x0",
          "removed": false
        }
      ],
      "logsBloom": "0x00000004000000000000000002000000000000000000000000000000000000000000000000000000000000000000000002000000080000000000000000000000000000000000010000000008000000000000000000008000000000000000000000000000000000000000000000000000000000000000000000000010000000000000000000000000000000000000000000000000000000000000000000000000000000000000000000000000000000000000000000000000000000000000000000000002800000000000000000000000000000080000000000000000000000000000200000000000000000000000000000000000000000000000000000000000",
      "type": "0x2",
      "transactionHash": "0x4dbd07878f54f299f4e10f210ea476585ce23208815978bc8a6a083a4e869d91",
      "transactionIndex": "0x0",
      "blockHash": "0x904c053a29c56b9f4a65e50dbd03028582394ca32f6e6479b74d4845d949a2a4",
      "blockNumber": "0x1370dfa",
      "gasUsed": "0x73fe",
      "effectiveGasPrice": "0x2574392c",
      "blobGasPrice": "0x1",
      "from": "0x9965507d1a55bcc2695c58ba16fb37d819b0a4dc",
      "to": "0xc02aaa39b223fe8d0a0e5c4f27ead9083c756cc2",
      "contractAddress": null,
      "root": "0x0000000000000000000000000000000000000000000000000000000000000000"
    },
    {
      "status": "0x1",
      "cumulativeGasUsed": "0x2085e",
      "logs": [
        {
          "address": "0x6c383ef7c9bf496b5c847530eb9c49a3ed6e4c56",
          "topics": [
            "0x82cbb5c96edba82f3c78b000d5e2fba7c1455691bdaed6a23044114b4ba7016b",
            "0x000000000000000000000000c02aaa39b223fe8d0a0e5c4f27ead9083c756cc2",
            "0x000000000000000000000000dac17f958d2ee523a2206206994597c13d831ec7",
            "0x0000000000000000000000000000000000000000000000000000000000000bb8"
          ],
          "data": "0xffffffffffffffffffffffffffffffffffffffffffffffffffffffffeb001668000000000000000000000000000000000000000000000000b43171fd925b5e0900000000000000000000000000000000000000000000000000000000000007080000000000000000000000000000000000000000000000000000000000000000",
          "blockHash": "0xd84787305bebf9b0c61c7e6d527dd1f3e7f3f2b1e7bb8fbb9ef1d55df1b888b9",
          "blockNumber": "0x1370dfb",
          "blockTimestamp": "0x66a7739b",
          "transactionHash": "0x6881ca10dd4604b02d7f5a293fe83c8e42874671f192c0045934bb16707e2584",
          "transactionIndex": "0x0",
          "logIndex": "0x0",
          "removed": false
        },
        {
          "address": "0x6c383ef7c9bf496b5c847530eb9c49a3ed6e4c56",
          "topics": [
            "0x751600799d4232b751da1b16a16cbaa54e27b2069fe5659d8936eb3a3a8efad7",
            "0x000000000000000000000000c02aaa39b223fe8d0a0e5c4f27ead9083c756cc2",
            "0x000000000000000000000000dac17f958d2ee523a2206206994597c13d831ec7",
            "0x0000000000000000000000000000000000000000000000000000000000000000"
          ],
          "data": "0xfffffffffffffffffffffffffffffffffffffffffffffffff40db40000000000",
          "blockHash": "0xd84787305bebf9b0c61c7e6d527dd1f3e7f3f2b1e7bb8fbb9ef1d55df1b888b9",
          "blockNumber": "0x1370dfb",
          "blockTimestamp": "0x66a7739b",
          "transactionHash": "0x6881ca10dd4604b02d7f5a293fe83c8e42874671f192c0045934bb16707e2584",
          "transactionIndex": "0x0",
          "logIndex": "0x1",
          "removed": false
        },
        {
          "address": "0x81f4f47aa3bbd154171c877b4d70f6c9eecab216",
          "topics": [
            "0xc3d58168c5ae7397731d063d5bbf3d657854427343f4c083240f7aacaa2d0f62",
            "0x0000000000000000000000009965507d1a55bcc2695c58ba16fb37d819b0a4dc",
            "0x0000000000000000000000000000000000000000000000000000000000000000",
            "0x00000000000000000000000081f4f47aa3bbd154171c877b4d70f6c9eecab216"
          ],
          "data": "0x00000000000000000000000000000000000000000000000000000000000000010000000000000000000000000000000000000000000000000024d6bb3083cdb6",
          "blockHash": "0xd84787305bebf9b0c61c7e6d527dd1f3e7f3f2b1e7bb8fbb9ef1d55df1b888b9",
          "blockNumber": "0x1370dfb",
          "blockTimestamp": "0x66a7739b",
          "transactionHash": "0x6881ca10dd4604b02d7f5a293fe83c8e42874671f192c0045934bb16707e2584",
          "transactionIndex": "0x0",
          "logIndex": "0x2",
          "removed": false
        },
        {
          "address": "0x81f4f47aa3bbd154171c877b4d70f6c9eecab216",
          "topics": [
            "0xc3d58168c5ae7397731d063d5bbf3d657854427343f4c083240f7aacaa2d0f62",
            "0x0000000000000000000000009965507d1a55bcc2695c58ba16fb37d819b0a4dc",
            "0x0000000000000000000000000000000000000000000000000000000000000000",
            "0x0000000000000000000000009965507d1a55bcc2695c58ba16fb37d819b0a4dc"
          ],
          "data": "0x00000000000000000000000000000000000000000000000000000000000000010000000000000000000000000000000000000000000000000622f360b66ee3eb",
          "blockHash": "0xd84787305bebf9b0c61c7e6d527dd1f3e7f3f2b1e7bb8fbb9ef1d55df1b888b9",
          "blockNumber": "0x1370dfb",
          "blockTimestamp": "0x66a7739b",
          "transactionHash": "0x6881ca10dd4604b02d7f5a293fe83c8e42874671f192c0045934bb16707e2584",
          "transactionIndex": "0x0",
          "logIndex": "0x3",
          "removed": false
        },
        {
          "address": "0x81f4f47aa3bbd154171c877b4d70f6c9eecab216",
          "topics": [
            "0x2ea082b0ce379480d9dfb0d7ab365e33def58ee2bee64887c13e531723b5c881",
            "0x0000000000000000000000000000000000000000000000000000000000000001"
          ],
          "data": "0x00000000000000000000000000000000000000000000000000000000000000000000000000000000000000000000000000000000000000000b3ddb3a890ba383000000000000000000000000000000000000000000000000000000000000000000000000000000000000000000000000000000000000000002a2db791e585c7d",
          "blockHash": "0xd84787305bebf9b0c61c7e6d527dd1f3e7f3f2b1e7bb8fbb9ef1d55df1b888b9",
          "blockNumber": "0x1370dfb",
          "blockTimestamp": "0x66a7739b",
          "transactionHash": "0x6881ca10dd4604b02d7f5a293fe83c8e42874671f192c0045934bb16707e2584",
          "transactionIndex": "0x0",
          "logIndex": "0x4",
          "removed": false
        }
      ],
      "logsBloom": "0x000000040000000000000000028000000000200000000002000000000000400000000000000000000000000004000000000000000010000000000000000420000000000000000100000000000000008000000000000480000000000000000000100000000200000000000000000008000000002000000000000000000000000040000000000000000000004000040000010000000000000000000020400000000000001000000000000000000000000000000000000000000000000000000040020000008000000000000000000800000000000a0008000000000100000060000020000000000004000000000000000000000040000000000000080000000000",
      "type": "0x2",
      "transactionHash": "0x6881ca10dd4604b02d7f5a293fe83c8e42874671f192c0045934bb16707e2584",
      "transactionIndex": "0x0",
      "blockHash": "0xd84787305bebf9b0c61c7e6d527dd1f3e7f3f2b1e7bb8fbb9ef1d55df1b888b9",
      "blockNumber": "0x1370dfb",
      "gasUsed": "0x2085e",
      "effectiveGasPrice": "0x2573185c",
      "blobGasPrice": "0x1",
      "from": "0x9965507d1a55bcc2695c58ba16fb37d819b0a4dc",
      "to": "0x81f4f47aa3bbd154171c877b4d70f6c9eecab216",
      "contractAddress": null,
      "root": "0x0000000000000000000000000000000000000000000000000000000000000000"
    },
    {
      "status": "0x1",
      "cumulativeGasUsed": "0x5208",
      "logs": [],
      "logsBloom": "0x00000000000000000000000000000000000000000000000000000000000000000000000000000000000000000000000000000000000000000000000000000000000000000000000000000000000000000000000000000000000000000000000000000000000000000000000000000000000000000000000000000000000000000000000000000000000000000000000000000000000000000000000000000000000000000000000000000000000000000000000000000000000000000000000000000000000000000000000000000000000000000000000000000000000000000000000000000000000000000000000000000000000000000000000000000000",
      "type": "0x2",
      "transactionHash": "0x4dcd5bc3ccc157dbe1405115fd28713ef18a9a47139588692bf9bdd35cd9af0b",
      "transactionIndex": "0x0",
      "blockHash": "0x4829b17bc1e5777d9a7eb566572b079f28f5e4539cb20b2cb149704d09a4020e",
      "blockNumber": "0x1370dfc",
      "gasUsed": "0x5208",
      "effectiveGasPrice": "0x25721d53",
      "blobGasPrice": "0x1",
      "from": "0x9965507d1a55bcc2695c58ba16fb37d819b0a4dc",
      "to": "0x9965507d1a55bcc2695c58ba16fb37d819b0a4dc",
      "contractAddress": null,
      "root": "0x0000000000000000000000000000000000000000000000000000000000000000"
    },
    {
      "status": "0x1",
      "cumulativeGasUsed": "0xa410",
      "logs": [],
      "logsBloom": "0x00000000000000000000000000000000000000000000000000000000000000000000000000000000000000000000000000000000000000000000000000000000000000000000000000000000000000000000000000000000000000000000000000000000000000000000000000000000000000000000000000000000000000000000000000000000000000000000000000000000000000000000000000000000000000000000000000000000000000000000000000000000000000000000000000000000000000000000000000000000000000000000000000000000000000000000000000000000000000000000000000000000000000000000000000000000",
      "type": "0x2",
      "transactionHash": "0x090cdd6b3bd0bf09fdfa160a18ffff247f260c414c82b0908647bd72fcdeac34",
      "transactionIndex": "0x1",
      "blockHash": "0x4829b17bc1e5777d9a7eb566572b079f28f5e4539cb20b2cb149704d09a4020e",
      "blockNumber": "0x1370dfc",
      "gasUsed": "0x5208",
      "effectiveGasPrice": "0x25721d53",
      "blobGasPrice": "0x1",
      "from": "0x9965507d1a55bcc2695c58ba16fb37d819b0a4dc",
      "to": "0x9965507d1a55bcc2695c58ba16fb37d819b0a4dc",
      "contractAddress": null,
      "root": "0x0000000000000000000000000000000000000000000000000000000000000000"
    },
    {
      "status": "0x1",
      "cumulativeGasUsed": "0xf618",
      "logs": [],
      "logsBloom": "0x00000000000000000000000000000000000000000000000000000000000000000000000000000000000000000000000000000000000000000000000000000000000000000000000000000000000000000000000000000000000000000000000000000000000000000000000000000000000000000000000000000000000000000000000000000000000000000000000000000000000000000000000000000000000000000000000000000000000000000000000000000000000000000000000000000000000000000000000000000000000000000000000000000000000000000000000000000000000000000000000000000000000000000000000000000000",
      "type": "0x2",
      "transactionHash": "0x57c950049e49f769362a87c957044ad39766df401cdf03e7c6ac699b0f059c4d",
      "transactionIndex": "0x2",
      "blockHash": "0x4829b17bc1e5777d9a7eb566572b079f28f5e4539cb20b2cb149704d09a4020e",
      "blockNumber": "0x1370dfc",
      "gasUsed": "0x5208",
      "effectiveGasPrice": "0x25721d53",
      "blobGasPrice": "0x1",
      "from": "0x9965507d1a55bcc2695c58ba16fb37d819b0a4dc",
      "to": "0x9965507d1a55bcc2695c58ba16fb37d819b0a4dc",
      "contractAddress": null,
      "root": "0x0000000000000000000000000000000000000000000000000000000000000000"
    },
    {
      "status": "0x1",
      "cumulativeGasUsed": "0x14820",
      "logs": [],
      "logsBloom": "0x00000000000000000000000000000000000000000000000000000000000000000000000000000000000000000000000000000000000000000000000000000000000000000000000000000000000000000000000000000000000000000000000000000000000000000000000000000000000000000000000000000000000000000000000000000000000000000000000000000000000000000000000000000000000000000000000000000000000000000000000000000000000000000000000000000000000000000000000000000000000000000000000000000000000000000000000000000000000000000000000000000000000000000000000000000000",
      "type": "0x2",
      "transactionHash": "0x19874c72e45992662afeb1c025e6f9ef95ea2c7354b20737f026edd60bf6ff6e",
      "transactionIndex": "0x3",
      "blockHash": "0x4829b17bc1e5777d9a7eb566572b079f28f5e4539cb20b2cb149704d09a4020e",
      "blockNumber": "0x1370dfc",
      "gasUsed": "0x5208",
      "effectiveGasPrice": "0x25721d53",
      "blobGasPrice": "0x1",
      "from": "0x9965507d1a55bcc2695c58ba16fb37d819b0a4dc",
      "to": "0x9965507d1a55bcc2695c58ba16fb37d819b0a4dc",
      "contractAddress": null,
      "root": "0x0000000000000000000000000000000000000000000000000000000000000000"
    },
    {
      "status": "0x1",
      "cumulativeGasUsed": "0x19a28",
      "logs": [],
      "logsBloom": "0x00000000000000000000000000000000000000000000000000000000000000000000000000000000000000000000000000000000000000000000000000000000000000000000000000000000000000000000000000000000000000000000000000000000000000000000000000000000000000000000000000000000000000000000000000000000000000000000000000000000000000000000000000000000000000000000000000000000000000000000000000000000000000000000000000000000000000000000000000000000000000000000000000000000000000000000000000000000000000000000000000000000000000000000000000000000",
      "type": "0x2",
      "transactionHash": "0xdb5ecfac01f3ee52823a10426d3551ef400df55d5eb89ff9e5049320f54d43f0",
      "transactionIndex": "0x4",
      "blockHash": "0x4829b17bc1e5777d9a7eb566572b079f28f5e4539cb20b2cb149704d09a4020e",
      "blockNumber": "0x1370dfc",
      "gasUsed": "0x5208",
      "effectiveGasPrice": "0x25721d53",
      "blobGasPrice": "0x1",
      "from": "0x9965507d1a55bcc2695c58ba16fb37d819b0a4dc",
      "to": "0x9965507d1a55bcc2695c58ba16fb37d819b0a4dc",
      "contractAddress": null,
      "root": "0x0000000000000000000000000000000000000000000000000000000000000000"
    },
    {
      "status": "0x1",
      "cumulativeGasUsed": "0x5208",
      "logs": [],
      "logsBloom": "0x00000000000000000000000000000000000000000000000000000000000000000000000000000000000000000000000000000000000000000000000000000000000000000000000000000000000000000000000000000000000000000000000000000000000000000000000000000000000000000000000000000000000000000000000000000000000000000000000000000000000000000000000000000000000000000000000000000000000000000000000000000000000000000000000000000000000000000000000000000000000000000000000000000000000000000000000000000000000000000000000000000000000000000000000000000000",
      "type": "0x2",
      "transactionHash": "0xa106e61ed3dfd5c2fc4dfa5063ca549a9f4a565439a804c9c8f24182c19c6da9",
      "transactionIndex": "0x0",
      "blockHash": "0x32894c5da07833b0dd13b3dee65adf14bc9e20a75ff84f3a25cd3dd12b87955e",
      "blockNumber": "0x1370dfd",
      "gasUsed": "0x5208",
      "effectiveGasPrice": "0x257140f9",
      "blobGasPrice": "0x1",
      "from": "0x9965507d1a55bcc2695c58ba16fb37d819b0a4dc",
      "to": "0x9965507d1a55bcc2695c58ba16fb37d819b0a4dc",
      "contractAddress": null,
      "root": "0x0000000000000000000000000000000000000000000000000000000000000000"
    },
    {
      "status": "0x1",
      "cumulativeGasUsed": "0x5208",
      "logs": [],
      "logsBloom": "0x00000000000000000000000000000000000000000000000000000000000000000000000000000000000000000000000000000000000000000000000000000000000000000000000000000000000000000000000000000000000000000000000000000000000000000000000000000000000000000000000000000000000000000000000000000000000000000000000000000000000000000000000000000000000000000000000000000000000000000000000000000000000000000000000000000000000000000000000000000000000000000000000000000000000000000000000000000000000000000000000000000000000000000000000000000000",
      "type": "0x2",
      "transactionHash": "0xe5bff018c5e84eafac1c66978c6efee2978fb2bdd904e049ff538680b91865a0",
      "transactionIndex": "0x0",
      "blockHash": "0x7628c3cacee53078e725a32ee888b59cbc502c2431015f1cb1cd38e1686a2fdc",
      "blockNumber": "0x1370dfe",
      "gasUsed": "0x5208",
      "effectiveGasPrice": "0x25707ee2",
      "blobGasPrice": "0x1",
      "from": "0x9965507d1a55bcc2695c58ba16fb37d819b0a4dc",
      "to": "0x9965507d1a55bcc2695c58ba16fb37d819b0a4dc",
      "contractAddress": null,
      "root": "0x0000000000000000000000000000000000000000000000000000000000000000"
    },
    {
      "status": "0x1",
      "cumulativeGasUsed": "0x5208",
      "logs": [],
      "logsBloom": "0x00000000000000000000000000000000000000000000000000000000000000000000000000000000000000000000000000000000000000000000000000000000000000000000000000000000000000000000000000000000000000000000000000000000000000000000000000000000000000000000000000000000000000000000000000000000000000000000000000000000000000000000000000000000000000000000000000000000000000000000000000000000000000000000000000000000000000000000000000000000000000000000000000000000000000000000000000000000000000000000000000000000000000000000000000000000",
      "type": "0x2",
      "transactionHash": "0x0858302168851dcf5f4d281d9c56d7786ce4aadfd93f0c6b2b0adff376ba2bea",
      "transactionIndex": "0x0",
      "blockHash": "0xb00eecd68060949fd7d9c3654ab25edc1957f9dc682168ebdd02ca2cada8b8d5",
      "blockNumber": "0x1370dff",
      "gasUsed": "0x5208",
      "effectiveGasPrice": "0x256fd505",
      "blobGasPrice": "0x1",
      "from": "0x9965507d1a55bcc2695c58ba16fb37d819b0a4dc",
      "to": "0x9965507d1a55bcc2695c58ba16fb37d819b0a4dc",
      "contractAddress": null,
      "root": "0x0000000000000000000000000000000000000000000000000000000000000000"
    },
    {
      "status": "0x1",
      "cumulativeGasUsed": "0x5208",
      "logs": [],
      "logsBloom": "0x00000000000000000000000000000000000000000000000000000000000000000000000000000000000000000000000000000000000000000000000000000000000000000000000000000000000000000000000000000000000000000000000000000000000000000000000000000000000000000000000000000000000000000000000000000000000000000000000000000000000000000000000000000000000000000000000000000000000000000000000000000000000000000000000000000000000000000000000000000000000000000000000000000000000000000000000000000000000000000000000000000000000000000000000000000000",
      "type": "0x2",
      "transactionHash": "0x815773273533e8fb7a9e2eee484706c291fc5c462ef037422d58b8f1ca50645b",
      "transactionIndex": "0x0",
      "blockHash": "0xca283229e030563915448edb21697f07392b4d7c1103757b11d87bd824ac1672",
      "blockNumber": "0x1370e00",
      "gasUsed": "0x5208",
      "effectiveGasPrice": "0x256f405c",
      "blobGasPrice": "0x1",
      "from": "0x9965507d1a55bcc2695c58ba16fb37d819b0a4dc",
      "to": "0x9965507d1a55bcc2695c58ba16fb37d819b0a4dc",
      "contractAddress": null,
      "root": "0x0000000000000000000000000000000000000000000000000000000000000000"
    },
    {
      "status": "0x1",
      "cumulativeGasUsed": "0xa410",
      "logs": [],
      "logsBloom": "0x00000000000000000000000000000000000000000000000000000000000000000000000000000000000000000000000000000000000000000000000000000000000000000000000000000000000000000000000000000000000000000000000000000000000000000000000000000000000000000000000000000000000000000000000000000000000000000000000000000000000000000000000000000000000000000000000000000000000000000000000000000000000000000000000000000000000000000000000000000000000000000000000000000000000000000000000000000000000000000000000000000000000000000000000000000000",
      "type": "0x2",
      "transactionHash": "0xdb65148d48baca3bf8fe57d91276fd07f8f45324fc06b8941904576fba63e288",
      "transactionIndex": "0x1",
      "blockHash": "0xca283229e030563915448edb21697f07392b4d7c1103757b11d87bd824ac1672",
      "blockNumber": "0x1370e00",
      "gasUsed": "0x5208",
      "effectiveGasPrice": "0x256f405c",
      "blobGasPrice": "0x1",
      "from": "0x9965507d1a55bcc2695c58ba16fb37d819b0a4dc",
      "to": "0x9965507d1a55bcc2695c58ba16fb37d819b0a4dc",
      "contractAddress": null,
      "root": "0x0000000000000000000000000000000000000000000000000000000000000000"
    }
  ],
  "libraries": [],
  "pending": [],
  "returns": {},
  "timestamp": 1722250281,
  "chain": 1,
  "commit": "cef7fa7"
}