{
  "transactions": [
    {
      "hash": "0xce44fe26c2eda6d811343f0d63a45af47463dba3fd0a50fe4cacd0a679f4d133",
      "transactionType": "CALL",
      "contractName": null,
      "contractAddress": "0x2aa12f98795e7a65072950afba9d1e023d398241",
      "function": "lPerMint(uint256)",
      "arguments": [
        "1"
      ],
      "transaction": {
        "from": "0x9965507d1a55bcc2695c58ba16fb37d819b0a4dc",
        "to": "0x2aa12f98795e7a65072950afba9d1e023d398241",
        "gas": "0x157eb",
        "value": "0x0",
        "input": "0x460028c90000000000000000000000000000000000000000000000000000000000000001",
        "nonce": "0x9f",
        "chainId": "0x1",
        "accessList": null,
        "type": null
      },
      "additionalContracts": [],
      "isFixedGasLimit": false
    }
  ],
  "receipts": [
    {
      "status": "0x1",
      "cumulativeGasUsed": "0xf8ff",
      "logs": [
        {
          "address": "0x2aa12f98795e7a65072950afba9d1e023d398241",
          "topics": [
            "0xddf252ad1be2c89b69c2b068fc378daa952ba7f163c4a11628f55a4df523b3ef",
            "0x0000000000000000000000000000000000000000000000000000000000000000",
            "0x0000000000000000000000009965507d1a55bcc2695c58ba16fb37d819b0a4dc"
          ],
          "data": "0x00000000000000000000000000000000000000000000000145678878259c3ec5",
          "blockHash": "0x159a1917f607c5d46f7ea44aa9ac452e5d3caeab8c83941a4414d2965ac7c9b3",
          "blockNumber": "0x1370e3e",
          "blockTimestamp": "0x66b28ad4",
          "transactionHash": "0xce44fe26c2eda6d811343f0d63a45af47463dba3fd0a50fe4cacd0a679f4d133",
          "transactionIndex": "0x0",
          "logIndex": "0x0",
          "removed": false
        }
      ],
      "logsBloom": "0x00000004000000000000000000000000000000000000000000000000000400000000000000000000000000000000000000000000000000000000000000000000000000000000000000000008000000000000000000008000000000000000000000004000020000000000000000000800000000000000000000000010000000000000000000000000000000000000000000000000000000000000080000000000000000000000000000000000000000000000000000000000000000000000000000000002800000000000000000000000000000000000000000000000000020000000000000000000000000000000000000000000000000000000000000000000",
      "type": "0x2",
      "transactionHash": "0xce44fe26c2eda6d811343f0d63a45af47463dba3fd0a50fe4cacd0a679f4d133",
      "transactionIndex": "0x0",
      "blockHash": "0x159a1917f607c5d46f7ea44aa9ac452e5d3caeab8c83941a4414d2965ac7c9b3",
      "blockNumber": "0x1370e3e",
      "gasUsed": "0xf8ff",
      "effectiveGasPrice": "0x3814ff08",
      "blobGasPrice": "0x1",
      "from": "0x9965507d1a55bcc2695c58ba16fb37d819b0a4dc",
      "to": "0x2aa12f98795e7a65072950afba9d1e023d398241",
      "contractAddress": null,
      "root": "0x0000000000000000000000000000000000000000000000000000000000000000"
    }
  ],
  "libraries": [],
  "pending": [],
  "returns": {},
  "timestamp": 1722977119,
  "chain": 1,
  "commit": "d7e29bd"
}