{
  "transactions": [
    {
      "hash": "0x63b60d865eb40fa3e776593f07d48f679802d30386a49267daa754edfa48ee11",
      "transactionType": "CALL",
      "contractName": null,
      "contractAddress": "0xc02aaa39b223fe8d0a0e5c4f27ead9083c756cc2",
      "function": "deposit()",
      "arguments": [],
      "transaction": {
        "from": "0x9965507d1a55bcc2695c58ba16fb37d819b0a4dc",
        "to": "0xc02aaa39b223fe8d0a0e5c4f27ead9083c756cc2",
        "gas": "0xf2ff",
        "value": "0xde0b6b3a7640000",
        "input": "0xd0e30db0",
        "nonce": "0x1e",
        "chainId": "0x1",
        "accessList": null,
        "type": null
      },
      "additionalContracts": [],
      "isFixedGasLimit": false
    },
    {
      "hash": "0x920b4bea9783394a69fcad83237b768c133c273d78dc2a234afba3d2dfb6d40d",
      "transactionType": "CALL",
      "contractName": null,
      "contractAddress": "0xc02aaa39b223fe8d0a0e5c4f27ead9083c756cc2",
      "function": "transfer(address,uint256)",
      "arguments": [
        "0x81f4f47aa3bBd154171C877b4d70F6C9EeCAb216",
        "1000000000000000000"
      ],
      "transaction": {
        "from": "0x9965507d1a55bcc2695c58ba16fb37d819b0a4dc",
        "to": "0xc02aaa39b223fe8d0a0e5c4f27ead9083c756cc2",
        "gas": "0xa035",
        "value": "0x0",
        "input": "0xa9059cbb00000000000000000000000081f4f47aa3bbd154171c877b4d70f6c9eecab2160000000000000000000000000000000000000000000000000de0b6b3a7640000",
        "nonce": "0x1f",
        "chainId": "0x1",
        "accessList": null,
        "type": null
      },
      "additionalContracts": [],
      "isFixedGasLimit": false
    },
    {
      "hash": "0xd8c3b94fc889e98f3c9bc06a2b3ed42b00c98d53e88a5757a832ddba2bbe5ddf",
      "transactionType": "CALL",
      "contractName": null,
      "contractAddress": "0x81f4f47aa3bbd154171c877b4d70f6c9eecab216",
      "function": "mint(bool,(address,address,int8))",
      "arguments": [
        "false",
        "(0xdAC17F958D2ee523a2206206994597C13D831ec7, 0xC02aaA39b223FE8D0A0e5C4F27eAD9083C756Cc2, -1)"
      ],
      "transaction": {
        "from": "0x9965507d1a55bcc2695c58ba16fb37d819b0a4dc",
        "to": "0x81f4f47aa3bbd154171c877b4d70f6c9eecab216",
        "gas": "0x38508",
        "value": "0x0",
        "input": "0x94c050f80000000000000000000000000000000000000000000000000000000000000000000000000000000000000000dac17f958d2ee523a2206206994597c13d831ec7000000000000000000000000c02aaa39b223fe8d0a0e5c4f27ead9083c756cc2ffffffffffffffffffffffffffffffffffffffffffffffffffffffffffffffff",
        "nonce": "0x20",
        "chainId": "0x1",
        "accessList": null,
        "type": null
      },
      "additionalContracts": [],
      "isFixedGasLimit": false
    }
  ],
  "receipts": [
    {
      "status": "0x1",
      "cumulativeGasUsed": "0xafee",
      "logs": [
        {
          "address": "0xc02aaa39b223fe8d0a0e5c4f27ead9083c756cc2",
          "topics": [
            "0xe1fffcc4923d04b559f4d29a8bfc6cda04eb5b0d3c460751c2402c5c5cc9109c",
            "0x0000000000000000000000009965507d1a55bcc2695c58ba16fb37d819b0a4dc"
          ],
          "data": "0x0000000000000000000000000000000000000000000000000de0b6b3a7640000",
          "blockHash": "0xc41a8d882a354944c0fbd6140dd4c9c3bdbf9b8a41b9c9238e66751c559f14f4",
          "blockNumber": "0x1370dc4",
          "blockTimestamp": "0x66a769ab",
          "transactionHash": "0x63b60d865eb40fa3e776593f07d48f679802d30386a49267daa754edfa48ee11",
          "transactionIndex": "0x0",
          "logIndex": "0x0",
          "removed": false
        }
      ],
      "logsBloom": "0x00000004000000000000000000000000000000000000000000000000000000000000000000000000000000000000000002000000080000000000000000000000000000000000000000000000000000000000000000008000000000008000000000000000000000000000000000000000000000000000000000000000000000000000000000000000000000000000000000000001000000000000000000000000000000000000000000000000000000000000000000000000000000000000000000000000800000000000000000000000000000000000000000000000000000000000200000000000000000000000000000000000000000400000000000000000",
      "type": "0x2",
      "transactionHash": "0x63b60d865eb40fa3e776593f07d48f679802d30386a49267daa754edfa48ee11",
      "transactionIndex": "0x0",
      "blockHash": "0xc41a8d882a354944c0fbd6140dd4c9c3bdbf9b8a41b9c9238e66751c559f14f4",
      "blockNumber": "0x1370dc4",
      "gasUsed": "0xafee",
      "effectiveGasPrice": "0x54409e4b",
      "blobGasPrice": "0x1",
      "from": "0x9965507d1a55bcc2695c58ba16fb37d819b0a4dc",
      "to": "0xc02aaa39b223fe8d0a0e5c4f27ead9083c756cc2",
      "contractAddress": null,
      "root": "0x0000000000000000000000000000000000000000000000000000000000000000"
    },
    {
      "status": "0x1",
      "cumulativeGasUsed": "0x73fe",
      "logs": [
        {
          "address": "0xc02aaa39b223fe8d0a0e5c4f27ead9083c756cc2",
          "topics": [
            "0xddf252ad1be2c89b69c2b068fc378daa952ba7f163c4a11628f55a4df523b3ef",
            "0x0000000000000000000000009965507d1a55bcc2695c58ba16fb37d819b0a4dc",
            "0x00000000000000000000000081f4f47aa3bbd154171c877b4d70f6c9eecab216"
          ],
          "data": "0x0000000000000000000000000000000000000000000000000de0b6b3a7640000",
          "blockHash": "0xab40fa21745f188f206907611a33b011372116839f6e73e5426f8b009e072a05",
          "blockNumber": "0x1370dc5",
          "blockTimestamp": "0x66a769ac",
          "transactionHash": "0x920b4bea9783394a69fcad83237b768c133c273d78dc2a234afba3d2dfb6d40d",
          "transactionIndex": "0x0",
          "logIndex": "0x0",
          "removed": false
        }
      ],
      "logsBloom": "0x00000004000000000000000002000000000000000000000000000000000000000000000000000000000000000000000002000000080000000000000000000000000000000000010000000008000000000000000000008000000000000000000000000000000000000000000000000000000000000000000000000010000000000000000000000000000000000000000000000000000000000000000000000000000000000000000000000000000000000000000000000000000000000000000000000002800000000000000000000000000000080000000000000000000000000000200000000000000000000000000000000000000000000000000000000000",
      "type": "0x2",
      "transactionHash": "0x920b4bea9783394a69fcad83237b768c133c273d78dc2a234afba3d2dfb6d40d",
      "transactionIndex": "0x0",
      "blockHash": "0xab40fa21745f188f206907611a33b011372116839f6e73e5426f8b009e072a05",
      "blockNumber": "0x1370dc5",
      "gasUsed": "0x73fe",
      "effectiveGasPrice": "0x4e6a7039",
      "blobGasPrice": "0x1",
      "from": "0x9965507d1a55bcc2695c58ba16fb37d819b0a4dc",
      "to": "0xc02aaa39b223fe8d0a0e5c4f27ead9083c756cc2",
      "contractAddress": null,
      "root": "0x0000000000000000000000000000000000000000000000000000000000000000"
    },
    {
      "status": "0x1",
      "cumulativeGasUsed": "0x2ee31",
      "logs": [
        {
          "address": "0x6c383ef7c9bf496b5c847530eb9c49a3ed6e4c56",
          "topics": [
            "0x82cbb5c96edba82f3c78b000d5e2fba7c1455691bdaed6a23044114b4ba7016b",
            "0x000000000000000000000000c02aaa39b223fe8d0a0e5c4f27ead9083c756cc2",
            "0x000000000000000000000000dac17f958d2ee523a2206206994597c13d831ec7",
            "0x0000000000000000000000000000000000000000000000000000000000000bb8"
          ],
          "data": "0xffffffffffffffffffffffffffffffffffffffffffffffffffffffffeb001668000000000000000000000000000000000000000000000000b43171fd925b5e0900000000000000000000000000000000000000000000000000000000000007080000000000000000000000000000000000000000000000000000000000000000",
          "blockHash": "0x134205b71637f55018f466a68e3a2f8fa45230a8faed3b630a94d44c3384f7c8",
          "blockNumber": "0x1370dc6",
          "blockTimestamp": "0x66a769ad",
          "transactionHash": "0xd8c3b94fc889e98f3c9bc06a2b3ed42b00c98d53e88a5757a832ddba2bbe5ddf",
          "transactionIndex": "0x0",
          "logIndex": "0x0",
          "removed": false
        },
        {
          "address": "0x6c383ef7c9bf496b5c847530eb9c49a3ed6e4c56",
          "topics": [
            "0x751600799d4232b751da1b16a16cbaa54e27b2069fe5659d8936eb3a3a8efad7",
            "0x000000000000000000000000c02aaa39b223fe8d0a0e5c4f27ead9083c756cc2",
            "0x000000000000000000000000dac17f958d2ee523a2206206994597c13d831ec7",
            "0x0000000000000000000000000000000000000000000000000000000000000000"
          ],
          "data": "0xfffffffffffffffffffffffffffffffffffffffffffffffff40db40000000000",
          "blockHash": "0x134205b71637f55018f466a68e3a2f8fa45230a8faed3b630a94d44c3384f7c8",
          "blockNumber": "0x1370dc6",
          "blockTimestamp": "0x66a769ad",
          "transactionHash": "0xd8c3b94fc889e98f3c9bc06a2b3ed42b00c98d53e88a5757a832ddba2bbe5ddf",
          "transactionIndex": "0x0",
          "logIndex": "0x1",
          "removed": false
        },
        {
          "address": "0x6c383ef7c9bf496b5c847530eb9c49a3ed6e4c56",
          "topics": [
            "0x82cbb5c96edba82f3c78b000d5e2fba7c1455691bdaed6a23044114b4ba7016b",
            "0x000000000000000000000000c02aaa39b223fe8d0a0e5c4f27ead9083c756cc2",
            "0x000000000000000000000000dac17f958d2ee523a2206206994597c13d831ec7",
            "0x0000000000000000000000000000000000000000000000000000000000000064"
          ],
          "data": "0xffffffffffffffffffffffffffffffffffffffffffffffffffffffffeb004098000000000000000000000000000000000000000000000000096422b7a695638100000000000000000000000000000000000000000000000000000000000007080000000000000000000000000000000000000000000000000000000000000000",
          "blockHash": "0x134205b71637f55018f466a68e3a2f8fa45230a8faed3b630a94d44c3384f7c8",
          "blockNumber": "0x1370dc6",
          "blockTimestamp": "0x66a769ad",
          "transactionHash": "0xd8c3b94fc889e98f3c9bc06a2b3ed42b00c98d53e88a5757a832ddba2bbe5ddf",
          "transactionIndex": "0x0",
          "logIndex": "0x2",
          "removed": false
        },
        {
          "address": "0x81f4f47aa3bbd154171c877b4d70f6c9eecab216",
          "topics": [
            "0xc3d58168c5ae7397731d063d5bbf3d657854427343f4c083240f7aacaa2d0f62",
            "0x0000000000000000000000009965507d1a55bcc2695c58ba16fb37d819b0a4dc",
            "0x0000000000000000000000000000000000000000000000000000000000000000",
            "0x00000000000000000000000081f4f47aa3bbd154171c877b4d70f6c9eecab216"
          ],
          "data": "0x0000000000000000000000000000000000000000000000000000000000000001000000000000000000000000000000000000000000000000002c9b82f54ca177",
          "blockHash": "0x134205b71637f55018f466a68e3a2f8fa45230a8faed3b630a94d44c3384f7c8",
          "blockNumber": "0x1370dc6",
          "blockTimestamp": "0x66a769ad",
          "transactionHash": "0xd8c3b94fc889e98f3c9bc06a2b3ed42b00c98d53e88a5757a832ddba2bbe5ddf",
          "transactionIndex": "0x0",
          "logIndex": "0x3",
          "removed": false
        },
        {
          "address": "0x81f4f47aa3bbd154171c877b4d70f6c9eecab216",
          "topics": [
            "0xc3d58168c5ae7397731d063d5bbf3d657854427343f4c083240f7aacaa2d0f62",
            "0x0000000000000000000000009965507d1a55bcc2695c58ba16fb37d819b0a4dc",
            "0x0000000000000000000000000000000000000000000000000000000000000000",
            "0x0000000000000000000000009965507d1a55bcc2695c58ba16fb37d819b0a4dc"
          ],
          "data": "0x0000000000000000000000000000000000000000000000000000000000000001000000000000000000000000000000000000000000000000076e3cc63350a99a",
          "blockHash": "0x134205b71637f55018f466a68e3a2f8fa45230a8faed3b630a94d44c3384f7c8",
          "blockNumber": "0x1370dc6",
          "blockTimestamp": "0x66a769ad",
          "transactionHash": "0xd8c3b94fc889e98f3c9bc06a2b3ed42b00c98d53e88a5757a832ddba2bbe5ddf",
          "transactionIndex": "0x0",
          "logIndex": "0x4",
          "removed": false
        },
        {
          "address": "0x81f4f47aa3bbd154171c877b4d70f6c9eecab216",
          "topics": [
            "0x2ea082b0ce379480d9dfb0d7ab365e33def58ee2bee64887c13e531723b5c881",
            "0x0000000000000000000000000000000000000000000000000000000000000001"
          ],
          "data": "0x00000000000000000000000000000000000000000000000000000000000000000000000000000000000000000000000000000000000000000b3ddb3a890ba383000000000000000000000000000000000000000000000000000000000000000000000000000000000000000000000000000000000000000002a2db791e585c7d",
          "blockHash": "0x134205b71637f55018f466a68e3a2f8fa45230a8faed3b630a94d44c3384f7c8",
          "blockNumber": "0x1370dc6",
          "blockTimestamp": "0x66a769ad",
          "transactionHash": "0xd8c3b94fc889e98f3c9bc06a2b3ed42b00c98d53e88a5757a832ddba2bbe5ddf",
          "transactionIndex": "0x0",
          "logIndex": "0x5",
          "removed": false
        }
      ],
      "logsBloom": "0x000000040000000000000000028000000000200000000002000000000000400000000000000000000000000004000000000100000010000000000000000c20000000000000000100000000000000008000000000000480000000000000000000100000000200000000000000000008000000002000000000000000000000000040000000000000000000004000040000010000000000000000000020400000000000001000000000000000000000000000000000000000000000000000000040020000008000000000000000000800000000000a0008000000000100000060000020000000000004000000000000000000000040000000008000080000000000",
      "type": "0x2",
      "transactionHash": "0xd8c3b94fc889e98f3c9bc06a2b3ed42b00c98d53e88a5757a832ddba2bbe5ddf",
      "transactionIndex": "0x0",
      "blockHash": "0x134205b71637f55018f466a68e3a2f8fa45230a8faed3b630a94d44c3384f7c8",
      "blockNumber": "0x1370dc6",
      "gasUsed": "0x2ee31",
      "effectiveGasPrice": "0x494d20cd",
      "blobGasPrice": "0x1",
      "from": "0x9965507d1a55bcc2695c58ba16fb37d819b0a4dc",
      "to": "0x81f4f47aa3bbd154171c877b4d70f6c9eecab216",
      "contractAddress": null,
      "root": "0x0000000000000000000000000000000000000000000000000000000000000000"
    }
  ],
  "libraries": [],
  "pending": [],
  "returns": {},
  "timestamp": 1722247739,
  "chain": 1,
  "commit": "cef7fa7"
}