{
  "transactions": [
    {
      "hash": "0x75edfa97dbe4d385093a27a9411ec8290b7dbacf1cd6b240db9a29c613b86620",
      "transactionType": "CALL",
      "contractName": null,
      "contractAddress": "0x2aa12f98795e7a65072950afba9d1e023d398241",
      "function": "stake(uint80)",
      "arguments": [
        "24996029432193803006"
      ],
      "transaction": {
        "from": "0x9965507d1a55bcc2695c58ba16fb37d819b0a4dc",
        "to": "0x2aa12f98795e7a65072950afba9d1e023d398241",
        "gas": "0x14481",
        "value": "0x0",
        "input": "0x4f7a21d20000000000000000000000000000000000000000000000015ae3bc557d1ee2fe",
        "nonce": "0xa0",
        "chainId": "0x1",
        "accessList": null,
        "type": null
      },
      "additionalContracts": [],
      "isFixedGasLimit": false
    },
    {
      "hash": "0x207a31a2ac4db36e03cf1f1012e37f2b2af017b0efb983912aa9ced798a58529",
      "transactionType": "CALL",
      "contractName": null,
      "contractAddress": "0x2aa12f98795e7a65072950afba9d1e023d398241",
      "function": null,
      "arguments": null,
      "transaction": {
        "from": "0xf39fd6e51aad88f6f4ce6ab8827279cfffb92266",
        "to": "0x2aa12f98795e7a65072950afba9d1e023d398241",
        "gas": "0x7199",
        "value": "0xde0b6b3a7640000",
        "input": "0x",
        "nonce": "0x2e1",
        "chainId": "0x1",
        "accessList": null,
        "type": null
      },
      "additionalContracts": [],
      "isFixedGasLimit": false
    },
    {
      "hash": "0x7c51c9fea80c9b4eff16ae7ecf80351f6ef9e9646256cb5ff0747dced61484be",
      "transactionType": "CALL",
      "contractName": null,
      "contractAddress": "0x2aa12f98795e7a65072950afba9d1e023d398241",
      "function": "collectFeesAndStartAuction(address)",
      "arguments": [
        "0xC02aaA39b223FE8D0A0e5C4F27eAD9083C756Cc2"
      ],
      "transaction": {
        "from": "0x9965507d1a55bcc2695c58ba16fb37d819b0a4dc",
        "to": "0x2aa12f98795e7a65072950afba9d1e023d398241",
        "gas": "0x11843",
        "value": "0x0",
        "input": "0xd181af7a000000000000000000000000c02aaa39b223fe8d0a0e5c4f27ead9083c756cc2",
        "nonce": "0xa1",
        "chainId": "0x1",
        "accessList": null,
        "type": null
      },
      "additionalContracts": [],
      "isFixedGasLimit": false
    }
  ],
  "receipts": [
    {
      "status": "0x1",
      "cumulativeGasUsed": "0xdde3",
      "logs": [
        {
          "address": "0x2aa12f98795e7a65072950afba9d1e023d398241",
          "topics": [
            "0x9e71bc8eea02a63969f509818f2dafb9254532904319f9dbda79b67bd34a5f3d",
            "0x0000000000000000000000009965507d1a55bcc2695c58ba16fb37d819b0a4dc"
          ],
          "data": "0x0000000000000000000000000000000000000000000000015ae3bc557d1ee2fe",
          "blockHash": "0x6e9a571a3bdda362a249253197db6beb6f7840872232df51f2294a7e6afd9adc",
          "blockNumber": "0x1370e3f",
          "blockTimestamp": "0x66b28c89",
          "transactionHash": "0x75edfa97dbe4d385093a27a9411ec8290b7dbacf1cd6b240db9a29c613b86620",
          "transactionIndex": "0x0",
          "logIndex": "0x0",
          "removed": false
        }
      ],
      "logsBloom": "0x00000004000000000000000000000000000000000800000000000000000400000000000000000000000000000000000000000000000000000000000000000000000000000000000000000000000000000000000000008000000000000000000040004000000000000008000000000000000000000000000000000000000000000000000000000000000000000000000000000000000000000000080000000000000000000000000000000000000000000000000000000000000000000000000000000000800000000000000000000000000000000000000000000000000000000000000000000000000000000000000000000000000000000000000000000000",
      "type": "0x2",
      "transactionHash": "0x75edfa97dbe4d385093a27a9411ec8290b7dbacf1cd6b240db9a29c613b86620",
      "transactionIndex": "0x0",
      "blockHash": "0x6e9a571a3bdda362a249253197db6beb6f7840872232df51f2294a7e6afd9adc",
      "blockNumber": "0x1370e3f",
      "gasUsed": "0xdde3",
      "effectiveGasPrice": "0x3814fefc",
      "blobGasPrice": "0x1",
      "from": "0x9965507d1a55bcc2695c58ba16fb37d819b0a4dc",
      "to": "0x2aa12f98795e7a65072950afba9d1e023d398241",
      "contractAddress": null,
      "root": "0x0000000000000000000000000000000000000000000000000000000000000000"
    },
    {
      "status": "0x1",
      "cumulativeGasUsed": "0x523f",
      "logs": [],
      "logsBloom": "0x00000000000000000000000000000000000000000000000000000000000000000000000000000000000000000000000000000000000000000000000000000000000000000000000000000000000000000000000000000000000000000000000000000000000000000000000000000000000000000000000000000000000000000000000000000000000000000000000000000000000000000000000000000000000000000000000000000000000000000000000000000000000000000000000000000000000000000000000000000000000000000000000000000000000000000000000000000000000000000000000000000000000000000000000000000000",
      "type": "0x2",
      "transactionHash": "0x207a31a2ac4db36e03cf1f1012e37f2b2af017b0efb983912aa9ced798a58529",
      "transactionIndex": "0x0",
      "blockHash": "0xca9da2e0f76c09fe535604eeb2df6215c1af335b8cd6ea44486961705c7d0d2a",
      "blockNumber": "0x1370e40",
      "gasUsed": "0x523f",
      "effectiveGasPrice": "0x3814fef1",
      "blobGasPrice": "0x1",
      "from": "0xf39fd6e51aad88f6f4ce6ab8827279cfffb92266",
      "to": "0x2aa12f98795e7a65072950afba9d1e023d398241",
      "contractAddress": null,
      "root": "0x0000000000000000000000000000000000000000000000000000000000000000"
    },
    {
      "status": "0x1",
      "cumulativeGasUsed": "0xcae8",
      "logs": [
        {
          "address": "0xc02aaa39b223fe8d0a0e5c4f27ead9083c756cc2",
          "topics": [
            "0x7fcf532c15f0a6db0bd6d0e038bea71d30d808c7d98cb3bf7268a95bf5081b65",
            "0x0000000000000000000000002aa12f98795e7a65072950afba9d1e023d398241"
          ],
          "data": "0x0000000000000000000000000000000000000000000000000000000000000000",
          "blockHash": "0x5b908dd4859fe79ade773d6c7987bab53e50740071675af4b4f30ee8cebfdbfa",
          "blockNumber": "0x1370e41",
          "blockTimestamp": "0x66b28c8b",
          "transactionHash": "0x7c51c9fea80c9b4eff16ae7ecf80351f6ef9e9646256cb5ff0747dced61484be",
          "transactionIndex": "0x0",
          "logIndex": "0x0",
          "removed": false
        },
        {
          "address": "0x2aa12f98795e7a65072950afba9d1e023d398241",
          "topics": [
            "0x2c33998a0a762573e90ee90157bd106909dee9b230db902fcdfbab148f00e5c9"
          ],
          "data": "0x0000000000000000000000000000000000000000000000000de0b6b3a7640000",
          "blockHash": "0x5b908dd4859fe79ade773d6c7987bab53e50740071675af4b4f30ee8cebfdbfa",
          "blockNumber": "0x1370e41",
          "blockTimestamp": "0x66b28c8b",
          "transactionHash": "0x7c51c9fea80c9b4eff16ae7ecf80351f6ef9e9646256cb5ff0747dced61484be",
          "transactionIndex": "0x0",
          "logIndex": "0x1",
          "removed": false
        }
      ],
      "logsBloom": "0x00000000000000000000000000000001000000000000000000000000000400000000000000000000000000000000000002000000080000000000000000000000000000000000000000000000000000000000000000400000000000000000000000004000000000000000000000000000000000000000040000000000000000000000000000000000000000000000000000000000010000000000080000000000000000000000000000000000000000000000000000000000040000000000000000040000000000000000000000000000000000000000000200000002000000000010200000000000000000000000000000000000000000000000000000000000",
      "type": "0x2",
      "transactionHash": "0x7c51c9fea80c9b4eff16ae7ecf80351f6ef9e9646256cb5ff0747dced61484be",
      "transactionIndex": "0x0",
      "blockHash": "0x5b908dd4859fe79ade773d6c7987bab53e50740071675af4b4f30ee8cebfdbfa",
      "blockNumber": "0x1370e41",
      "gasUsed": "0xcae8",
      "effectiveGasPrice": "0x3814fee7",
      "blobGasPrice": "0x1",
      "from": "0x9965507d1a55bcc2695c58ba16fb37d819b0a4dc",
      "to": "0x2aa12f98795e7a65072950afba9d1e023d398241",
      "contractAddress": null,
      "root": "0x0000000000000000000000000000000000000000000000000000000000000000"
    }
  ],
  "libraries": [],
  "pending": [],
  "returns": {},
  "timestamp": 1722977557,
  "chain": 1,
  "commit": "d7e29bd"
}