{
  "transactions": [
    {
      "hash": "0x47cecc0cf3c43b72953e62f0b17357c699da6fef8d3ef02b02077b2437b5c3c3",
      "transactionType": "CALL",
      "contractName": null,
      "contractAddress": "0x2aa12f98795e7a65072950afba9d1e023d398241",
      "function": null,
      "arguments": null,
      "transaction": {
        "from": "0xf39fd6e51aad88f6f4ce6ab8827279cfffb92266",
        "to": "0x2aa12f98795e7a65072950afba9d1e023d398241",
        "gas": "0x7199",
        "value": "0xde0b6b3a7640000",
        "input": "0x",
        "nonce": "0x2e0",
        "chainId": "0x1",
        "accessList": null,
        "type": null
      },
      "additionalContracts": [],
      "isFixedGasLimit": false
    },
    {
      "hash": "0x5abaaea9b671bc226bb2ac64bbb1eafd3c486ada9c676aa537313c1aba166c3e",
      "transactionType": "CALL",
      "contractName": null,
      "contractAddress": "0x2aa12f98795e7a65072950afba9d1e023d398241",
      "function": "collectFeesAndStartAuction(address)",
      "arguments": [
        "0xC02aaA39b223FE8D0A0e5C4F27eAD9083C756Cc2"
      ],
      "transaction": {
        "from": "0x9965507d1a55bcc2695c58ba16fb37d819b0a4dc",
        "to": "0x2aa12f98795e7a65072950afba9d1e023d398241",
        "gas": "0x19f5d",
        "value": "0x0",
        "input": "0xd181af7a000000000000000000000000c02aaa39b223fe8d0a0e5c4f27ead9083c756cc2",
        "nonce": "0x9e",
        "chainId": "0x1",
        "accessList": null,
        "type": null
      },
      "additionalContracts": [],
      "isFixedGasLimit": false
    }
  ],
  "receipts": [
    {
      "status": "0x1",
      "cumulativeGasUsed": "0x523f",
      "logs": [],
      "logsBloom": "0x00000000000000000000000000000000000000000000000000000000000000000000000000000000000000000000000000000000000000000000000000000000000000000000000000000000000000000000000000000000000000000000000000000000000000000000000000000000000000000000000000000000000000000000000000000000000000000000000000000000000000000000000000000000000000000000000000000000000000000000000000000000000000000000000000000000000000000000000000000000000000000000000000000000000000000000000000000000000000000000000000000000000000000000000000000000",
      "type": "0x2",
      "transactionHash": "0x47cecc0cf3c43b72953e62f0b17357c699da6fef8d3ef02b02077b2437b5c3c3",
      "transactionIndex": "0x0",
      "blockHash": "0xdb7ed00a60c1a3d2dca60a75c03483a96628442466a4ecdfc8a31b666b3c999f",
      "blockNumber": "0x1370e3c",
      "gasUsed": "0x523f",
      "effectiveGasPrice": "0x3814ff26",
      "blobGasPrice": "0x1",
      "from": "0xf39fd6e51aad88f6f4ce6ab8827279cfffb92266",
      "to": "0x2aa12f98795e7a65072950afba9d1e023d398241",
      "contractAddress": null,
      "root": "0x0000000000000000000000000000000000000000000000000000000000000000"
    },
    {
      "status": "0x1",
      "cumulativeGasUsed": "0x11c03",
      "logs": [
        {
          "address": "0xc02aaa39b223fe8d0a0e5c4f27ead9083c756cc2",
          "topics": [
            "0xddf252ad1be2c89b69c2b068fc378daa952ba7f163c4a11628f55a4df523b3ef",
            "0x00000000000000000000000081f4f47aa3bbd154171c877b4d70f6c9eecab216",
            "0x0000000000000000000000002aa12f98795e7a65072950afba9d1e023d398241"
          ],
          "data": "0x00000000000000000000000000000000000000000000000000437c58e96f3c72",
          "blockHash": "0x517bb2746c85e1c601b47e8fa47752388918d450717ff33086cf87f76f24aef5",
          "blockNumber": "0x1370e3d",
          "blockTimestamp": "0x66b28abb",
          "transactionHash": "0x5abaaea9b671bc226bb2ac64bbb1eafd3c486ada9c676aa537313c1aba166c3e",
          "transactionIndex": "0x0",
          "logIndex": "0x0",
          "removed": false
        },
        {
          "address": "0xc02aaa39b223fe8d0a0e5c4f27ead9083c756cc2",
          "topics": [
            "0x7fcf532c15f0a6db0bd6d0e038bea71d30d808c7d98cb3bf7268a95bf5081b65",
            "0x0000000000000000000000002aa12f98795e7a65072950afba9d1e023d398241"
          ],
          "data": "0x00000000000000000000000000000000000000000000000000437c58e96f3c72",
          "blockHash": "0x517bb2746c85e1c601b47e8fa47752388918d450717ff33086cf87f76f24aef5",
          "blockNumber": "0x1370e3d",
          "blockTimestamp": "0x66b28abb",
          "transactionHash": "0x5abaaea9b671bc226bb2ac64bbb1eafd3c486ada9c676aa537313c1aba166c3e",
          "transactionIndex": "0x0",
          "logIndex": "0x1",
          "removed": false
        },
        {
          "address": "0x2aa12f98795e7a65072950afba9d1e023d398241",
          "topics": [
            "0x2c33998a0a762573e90ee90157bd106909dee9b230db902fcdfbab148f00e5c9"
          ],
          "data": "0x0000000000000000000000000000000000000000000000000e24330c90d33c72",
          "blockHash": "0x517bb2746c85e1c601b47e8fa47752388918d450717ff33086cf87f76f24aef5",
          "blockNumber": "0x1370e3d",
          "blockTimestamp": "0x66b28abb",
          "transactionHash": "0x5abaaea9b671bc226bb2ac64bbb1eafd3c486ada9c676aa537313c1aba166c3e",
          "transactionIndex": "0x0",
          "logIndex": "0x2",
          "removed": false
        }
      ],
      "logsBloom": "0x00000000000000000000000002000001000000000000000000000000000400000000000000000000000000000000000002000000080000000000000000000000000000000000010000000008000000000000000000400000000000000000000000004000000000000000000000000000000000000000040000000010000000000000000000000000000000000000000000000000010000000000080000000000000000000000000000000000000000000000000000000000040000000000000000040002000000000000000000000000000000080000000200000002000000000010200000000000000000000000000000000000000000000000000000000000",
      "type": "0x2",
      "transactionHash": "0x5abaaea9b671bc226bb2ac64bbb1eafd3c486ada9c676aa537313c1aba166c3e",
      "transactionIndex": "0x0",
      "blockHash": "0x517bb2746c85e1c601b47e8fa47752388918d450717ff33086cf87f76f24aef5",
      "blockNumber": "0x1370e3d",
      "gasUsed": "0x11c03",
      "effectiveGasPrice": "0x3814ff16",
      "blobGasPrice": "0x1",
      "from": "0x9965507d1a55bcc2695c58ba16fb37d819b0a4dc",
      "to": "0x2aa12f98795e7a65072950afba9d1e023d398241",
      "contractAddress": null,
      "root": "0x0000000000000000000000000000000000000000000000000000000000000000"
    }
  ],
  "libraries": [],
  "pending": [],
  "returns": {},
  "timestamp": 1722977093,
  "chain": 1,
  "commit": "d7e29bd"
}