{
  "transactions": [
    {
      "hash": "0x484cd8a4bb025cd11f119892f6ebcda11a9fe1458c253c7d83d2e79947bec5c9",
      "transactionType": "CALL",
      "contractName": null,
      "contractAddress": "0x2aa12f98795e7a65072950afba9d1e023d398241",
      "function": "stake(uint80)",
      "arguments": [
        "0"
      ],
      "transaction": {
        "from": "0x9965507d1a55bcc2695c58ba16fb37d819b0a4dc",
        "to": "0x2aa12f98795e7a65072950afba9d1e023d398241",
        "gas": "0x12df9",
        "value": "0x0",
        "input": "0x4f7a21d20000000000000000000000000000000000000000000000000000000000000000",
        "nonce": "0xa2",
        "chainId": "0x1",
        "accessList": null,
        "type": null
      },
      "additionalContracts": [],
      "isFixedGasLimit": false
    },
    {
      "hash": "0x7867794ef07848cd192ba7fd44a742df97e3feb5a43a18e4f31fb320368f54ed",
      "transactionType": "CALL",
      "contractName": null,
      "contractAddress": "0x2aa12f98795e7a65072950afba9d1e023d398241",
      "function": null,
      "arguments": null,
      "transaction": {
        "from": "0xf39fd6e51aad88f6f4ce6ab8827279cfffb92266",
        "to": "0x2aa12f98795e7a65072950afba9d1e023d398241",
        "gas": "0x7199",
        "value": "0xde0b6b3a7640000",
        "input": "0x",
        "nonce": "0x2e2",
        "chainId": "0x1",
        "accessList": null,
        "type": null
      },
      "additionalContracts": [],
      "isFixedGasLimit": false
    },
    {
      "hash": "0xeadb5f4c100f86a38a54d28291a5edddd0aecc37d87353b8973f2e60f9563ee1",
      "transactionType": "CALL",
      "contractName": null,
      "contractAddress": "0x2aa12f98795e7a65072950afba9d1e023d398241",
      "function": "collectFeesAndStartAuction(address)",
      "arguments": [
        "0xC02aaA39b223FE8D0A0e5C4F27eAD9083C756Cc2"
      ],
      "transaction": {
        "from": "0x9965507d1a55bcc2695c58ba16fb37d819b0a4dc",
        "to": "0x2aa12f98795e7a65072950afba9d1e023d398241",
        "gas": "0x19f5d",
        "value": "0x0",
        "input": "0xd181af7a000000000000000000000000c02aaa39b223fe8d0a0e5c4f27ead9083c756cc2",
        "nonce": "0xa3",
        "chainId": "0x1",
        "accessList": null,
        "type": null
      },
      "additionalContracts": [],
      "isFixedGasLimit": false
    }
  ],
  "receipts": [
    {
      "status": "0x1",
      "cumulativeGasUsed": "0xdaa0",
      "logs": [
        {
          "address": "0x2aa12f98795e7a65072950afba9d1e023d398241",
          "topics": [
            "0x9e71bc8eea02a63969f509818f2dafb9254532904319f9dbda79b67bd34a5f3d",
            "0x0000000000000000000000009965507d1a55bcc2695c58ba16fb37d819b0a4dc"
          ],
          "data": "0x0000000000000000000000000000000000000000000000000000000000000000",
          "blockHash": "0x2ccca84afffc18131fd76209b0534f8b531f317d6b7a1b3f99605ac8ba524c4f",
          "blockNumber": "0x1370e4f",
          "blockTimestamp": "0x66b7d18a",
          "transactionHash": "0x484cd8a4bb025cd11f119892f6ebcda11a9fe1458c253c7d83d2e79947bec5c9",
          "transactionIndex": "0x0",
          "logIndex": "0x0",
          "removed": false
        }
      ],
      "logsBloom": "0x00000004000000000000000000000000000000000800000000000000000400000000000000000000000000000000000000000000000000000000000000000000000000000000000000000000000000000000000000008000000000000000000040004000000000000008000000000000000000000000000000000000000000000000000000000000000000000000000000000000000000000000080000000000000000000000000000000000000000000000000000000000000000000000000000000000800000000000000000000000000000000000000000000000000000000000000000000000000000000000000000000000000000000000000000000000",
      "type": "0x2",
      "transactionHash": "0x484cd8a4bb025cd11f119892f6ebcda11a9fe1458c253c7d83d2e79947bec5c9",
      "transactionIndex": "0x0",
      "blockHash": "0x2ccca84afffc18131fd76209b0534f8b531f317d6b7a1b3f99605ac8ba524c4f",
      "blockNumber": "0x1370e4f",
      "gasUsed": "0xdaa0",
      "effectiveGasPrice": "0x5f5e10f",
      "blobGasPrice": "0x1",
      "from": "0x9965507d1a55bcc2695c58ba16fb37d819b0a4dc",
      "to": "0x2aa12f98795e7a65072950afba9d1e023d398241",
      "contractAddress": null,
      "root": "0x0000000000000000000000000000000000000000000000000000000000000000"
    },
    {
      "status": "0x1",
      "cumulativeGasUsed": "0x523f",
      "logs": [],
      "logsBloom": "0x00000000000000000000000000000000000000000000000000000000000000000000000000000000000000000000000000000000000000000000000000000000000000000000000000000000000000000000000000000000000000000000000000000000000000000000000000000000000000000000000000000000000000000000000000000000000000000000000000000000000000000000000000000000000000000000000000000000000000000000000000000000000000000000000000000000000000000000000000000000000000000000000000000000000000000000000000000000000000000000000000000000000000000000000000000000",
      "type": "0x2",
      "transactionHash": "0x7867794ef07848cd192ba7fd44a742df97e3feb5a43a18e4f31fb320368f54ed",
      "transactionIndex": "0x0",
      "blockHash": "0xc70fbf0c5b7adab8918507aea9fb8b1b9f797d3d26a7dc7bb5ca44fc7223a927",
      "blockNumber": "0x1370e50",
      "gasUsed": "0x523f",
      "effectiveGasPrice": "0x5f5e10e",
      "blobGasPrice": "0x1",
      "from": "0xf39fd6e51aad88f6f4ce6ab8827279cfffb92266",
      "to": "0x2aa12f98795e7a65072950afba9d1e023d398241",
      "contractAddress": null,
      "root": "0x0000000000000000000000000000000000000000000000000000000000000000"
    },
    {
      "status": "0x1",
      "cumulativeGasUsed": "0x11c03",
      "logs": [
        {
          "address": "0xc02aaa39b223fe8d0a0e5c4f27ead9083c756cc2",
          "topics": [
            "0xddf252ad1be2c89b69c2b068fc378daa952ba7f163c4a11628f55a4df523b3ef",
            "0x00000000000000000000000081f4f47aa3bbd154171c877b4d70f6c9eecab216",
            "0x0000000000000000000000002aa12f98795e7a65072950afba9d1e023d398241"
          ],
          "data": "0x00000000000000000000000000000000000000000000000001543aaed0a4c197",
          "blockHash": "0x9d59abcc0a39780104df5cca37c20cf45715c026b5a616e888ee967444c984ed",
          "blockNumber": "0x1370e51",
          "blockTimestamp": "0x66b7d18c",
          "transactionHash": "0xeadb5f4c100f86a38a54d28291a5edddd0aecc37d87353b8973f2e60f9563ee1",
          "transactionIndex": "0x0",
          "logIndex": "0x0",
          "removed": false
        },
        {
          "address": "0xc02aaa39b223fe8d0a0e5c4f27ead9083c756cc2",
          "topics": [
            "0x7fcf532c15f0a6db0bd6d0e038bea71d30d808c7d98cb3bf7268a95bf5081b65",
            "0x0000000000000000000000002aa12f98795e7a65072950afba9d1e023d398241"
          ],
          "data": "0x00000000000000000000000000000000000000000000000001543aaed0a4c197",
          "blockHash": "0x9d59abcc0a39780104df5cca37c20cf45715c026b5a616e888ee967444c984ed",
          "blockNumber": "0x1370e51",
          "blockTimestamp": "0x66b7d18c",
          "transactionHash": "0xeadb5f4c100f86a38a54d28291a5edddd0aecc37d87353b8973f2e60f9563ee1",
          "transactionIndex": "0x0",
          "logIndex": "0x1",
          "removed": false
        },
        {
          "address": "0x2aa12f98795e7a65072950afba9d1e023d398241",
          "topics": [
            "0x2c33998a0a762573e90ee90157bd106909dee9b230db902fcdfbab148f00e5c9"
          ],
          "data": "0x0000000000000000000000000000000000000000000000000f34f1627808c197",
          "blockHash": "0x9d59abcc0a39780104df5cca37c20cf45715c026b5a616e888ee967444c984ed",
          "blockNumber": "0x1370e51",
          "blockTimestamp": "0x66b7d18c",
          "transactionHash": "0xeadb5f4c100f86a38a54d28291a5edddd0aecc37d87353b8973f2e60f9563ee1",
          "transactionIndex": "0x0",
          "logIndex": "0x2",
          "removed": false
        }
      ],
      "logsBloom": "0x00000000000000000000000002000001000000000000000000000000000400000000000000000000000000000000000002000000080000000000000000000000000000000000010000000008000000000000000000400000000000000000000000004000000000000000000000000000000000000000040000000010000000000000000000000000000000000000000000000000010000000000080000000000000000000000000000000000000000000000000000000000040000000000000000040002000000000000000000000000000000080000000200000002000000000010200000000000000000000000000000000000000000000000000000000000",
      "type": "0x2",
      "transactionHash": "0xeadb5f4c100f86a38a54d28291a5edddd0aecc37d87353b8973f2e60f9563ee1",
      "transactionIndex": "0x0",
      "blockHash": "0x9d59abcc0a39780104df5cca37c20cf45715c026b5a616e888ee967444c984ed",
      "blockNumber": "0x1370e51",
      "gasUsed": "0x11c03",
      "effectiveGasPrice": "0x5f5e10d",
      "blobGasPrice": "0x1",
      "from": "0x9965507d1a55bcc2695c58ba16fb37d819b0a4dc",
      "to": "0x2aa12f98795e7a65072950afba9d1e023d398241",
      "contractAddress": null,
      "root": "0x0000000000000000000000000000000000000000000000000000000000000000"
    }
  ],
  "libraries": [],
  "pending": [],
  "returns": {},
  "timestamp": 1723322905,
  "chain": 1,
  "commit": "ffa8a7c"
}