{
  "transactions": [
    {
      "hash": "0xb32c513303456a6a76901426942370eeb874da4bd69733de0f36c87dc234a2ee",
      "transactionType": "CALL",
      "contractName": null,
      "contractAddress": "0x00b0517de6b2b09abd3a7b69d66d85efdb2c7d94",
      "function": "updateVaultsIssuances(uint48[],uint48[],uint8[])",
      "arguments": [
        "[]",
        "[1]",
        "[255]"
      ],
      "transaction": {
        "from": "0xf39fd6e51aad88f6f4ce6ab8827279cfffb92266",
        "to": "0x00b0517de6b2b09abd3a7b69d66d85efdb2c7d94",
        "gas": "0x19eec",
        "value": "0x0",
        "input": "0xc39bb8af0000000000000000000000000000000000000000000000000000000000000060000000000000000000000000000000000000000000000000000000000000008000000000000000000000000000000000000000000000000000000000000000c0000000000000000000000000000000000000000000000000000000000000000000000000000000000000000000000000000000000000000000000000000000010000000000000000000000000000000000000000000000000000000000000001000000000000000000000000000000000000000000000000000000000000000100000000000000000000000000000000000000000000000000000000000000ff",
        "nonce": "0x2c0",
        "chainId": "0x1",
        "accessList": null,
        "type": null
      },
      "additionalContracts": [],
      "isFixedGasLimit": false
    }
  ],
  "receipts": [
    {
      "status": "0x1",
      "cumulativeGasUsed": "0x12c66",
      "logs": [
        {
          "address": "0xa9efdef197130b945462163a0b852019ba529a66",
          "topics": [
            "0xc05b4c85e1a9e164c2764407bce9e5955a2e6435dea37ef8c4e62ec458ebf21a",
            "0x0000000000000000000000000000000000000000000000000000000000000001"
          ],
          "data": "0x00000000000000000000000000000000000000000000000000000000000000ff00000000000000000000000000000000000000000000000000000000000000ff",
          "blockHash": "0xbdd912e075f880a032702d872f9b8feb74cbf9482dee4faa30818efa8824614d",
          "blockNumber": "0x13401a5",
          "blockTimestamp": "0x669c4fb9",
          "transactionHash": "0xb32c513303456a6a76901426942370eeb874da4bd69733de0f36c87dc234a2ee",
          "transactionIndex": "0x0",
          "logIndex": "0x0",
          "removed": false
        }
      ],
      "logsBloom": "0x00000000000000000000000000002000000000000000000000000000000000000000000000000000000000000000000000400000000000000000000000040000000000000000000000000000000000000000000000040000000000000000000000000000000000000000000000000000000000000000000000000000000000000000000000000000004000000000000000000000000000000000000000000000000000000000000040000000000000040000000000000000000000000000000000000000000000000000000000000000000000000000000000000000000040000000000000000004000000000000000000000000000000000000000000000000",
      "type": "0x2",
      "transactionHash": "0xb32c513303456a6a76901426942370eeb874da4bd69733de0f36c87dc234a2ee",
      "transactionIndex": "0x0",
      "blockHash": "0xbdd912e075f880a032702d872f9b8feb74cbf9482dee4faa30818efa8824614d",
      "blockNumber": "0x13401a5",
      "gasUsed": "0x12c66",
      "effectiveGasPrice": "0x5a26c4dd",
      "blobGasPrice": "0x1",
      "from": "0xf39fd6e51aad88f6f4ce6ab8827279cfffb92266",
      "to": "0x00b0517de6b2b09abd3a7b69d66d85efdb2c7d94",
      "contractAddress": null,
      "root": "0x0000000000000000000000000000000000000000000000000000000000000000"
    }
  ],
  "libraries": [],
  "pending": [],
  "returns": {},
  "timestamp": 1721520199,
  "chain": 1,
  "commit": "d8fc71f"
}