{
  "transactions": [
    {
      "hash": null,
      "transactionType": "CALL",
      "contractName": null,
      "contractAddress": "0xaaf0f531b7947e8492f21862471d61d5305f7538",
      "function": "updateVaultsIssuances(uint48[],uint48[],uint8[])",
      "arguments": [
        "[]",
        "[1]",
        "[255]"
      ],
      "transaction": {
        "from": "0xf39fd6e51aad88f6f4ce6ab8827279cfffb92266",
        "to": "0xaaf0f531b7947e8492f21862471d61d5305f7538",
        "gas": "0x155a4",
        "value": "0x0",
        "input": "0xc39bb8af0000000000000000000000000000000000000000000000000000000000000060000000000000000000000000000000000000000000000000000000000000008000000000000000000000000000000000000000000000000000000000000000c0000000000000000000000000000000000000000000000000000000000000000000000000000000000000000000000000000000000000000000000000000000010000000000000000000000000000000000000000000000000000000000000001000000000000000000000000000000000000000000000000000000000000000100000000000000000000000000000000000000000000000000000000000000ff",
        "nonce": "0x2d0",
        "chainId": "0x1",
        "accessList": null,
        "type": null
      },
      "additionalContracts": [],
      "isFixedGasLimit": false
    }
  ],
  "receipts": [],
  "libraries": [],
  "pending": [],
  "returns": {},
  "timestamp": 1722250158,
  "chain": 1,
  "commit": "cef7fa7"
}