{
  "transactions": [
    {
      "hash": "0xc5d8eb6b758fb3587bd66abeaa26d8665665d578bf7c03bccaa6a45f2b64b80c",
      "transactionType": "CALL",
      "contractName": null,
      "contractAddress": "0x0bbfcd7a557ffb8a70cb0948ff680f0e573bbff2",
      "function": "updateVaultsIssuances(uint48[],uint48[],uint8[])",
      "arguments": [
        "[]",
        "[1]",
        "[255]"
      ],
      "transaction": {
        "from": "0xf39fd6e51aad88f6f4ce6ab8827279cfffb92266",
        "to": "0x0bbfcd7a557ffb8a70cb0948ff680f0e573bbff2",
        "gas": "0x19eec",
        "value": "0x0",
        "input": "0xc39bb8af0000000000000000000000000000000000000000000000000000000000000060000000000000000000000000000000000000000000000000000000000000008000000000000000000000000000000000000000000000000000000000000000c0000000000000000000000000000000000000000000000000000000000000000000000000000000000000000000000000000000000000000000000000000000010000000000000000000000000000000000000000000000000000000000000001000000000000000000000000000000000000000000000000000000000000000100000000000000000000000000000000000000000000000000000000000000ff",
        "nonce": "0x2df",
        "chainId": "0x1",
        "accessList": null,
        "type": null
      },
      "additionalContracts": [],
      "isFixedGasLimit": false
    }
  ],
  "receipts": [
    {
      "status": "0x1",
      "cumulativeGasUsed": "0x12c66",
      "logs": [
        {
          "address": "0xdabf214e5a833269c192d9d70efdde174680628d",
          "topics": [
            "0xc05b4c85e1a9e164c2764407bce9e5955a2e6435dea37ef8c4e62ec458ebf21a",
            "0x0000000000000000000000000000000000000000000000000000000000000001"
          ],
          "data": "0x00000000000000000000000000000000000000000000000000000000000000ff00000000000000000000000000000000000000000000000000000000000000ff",
          "blockHash": "0xd9f207c988ca58be84a65f3a3d7cb00f2f87ca278e830dfe70a68d50eb6f8cb2",
          "blockNumber": "0x1370e21",
          "blockTimestamp": "0x66a803a7",
          "transactionHash": "0xc5d8eb6b758fb3587bd66abeaa26d8665665d578bf7c03bccaa6a45f2b64b80c",
          "transactionIndex": "0x0",
          "logIndex": "0x0",
          "removed": false
        }
      ],
      "logsBloom": "0x00000000000000000000000000002000000000000000000000000000000000000000000000000000000000000000000000000000000000000000000000040000000000000000000000000000000000000000400000040000000000000000000000000000000000000000000000000000000000000000000000000000000020000000000000000000000000000000000000000000000000000000000000000000000000000000000000000000000000040000000000000000080000000000000000000000000000000000000000000000000000000000000000000000000040000000000000000004000000000000000000000000000000000000000000000000",
      "type": "0x2",
      "transactionHash": "0xc5d8eb6b758fb3587bd66abeaa26d8665665d578bf7c03bccaa6a45f2b64b80c",
      "transactionIndex": "0x0",
      "blockHash": "0xd9f207c988ca58be84a65f3a3d7cb00f2f87ca278e830dfe70a68d50eb6f8cb2",
      "blockNumber": "0x1370e21",
      "gasUsed": "0x12c66",
      "effectiveGasPrice": "0x256b4079",
      "blobGasPrice": "0x1",
      "from": "0xf39fd6e51aad88f6f4ce6ab8827279cfffb92266",
      "to": "0x0bbfcd7a557ffb8a70cb0948ff680f0e573bbff2",
      "contractAddress": null,
      "root": "0x0000000000000000000000000000000000000000000000000000000000000000"
    }
  ],
  "libraries": [],
  "pending": [],
  "returns": {},
  "timestamp": 1722287150,
  "chain": 1,
  "commit": "cef7fa7"
}