{
  "transactions": [
    {
      "hash": "0xa700be65b5d4f9d6b982b95c10b6847ebe83fc71245d40737d6e8e4bea5143b5",
      "transactionType": "CALL",
      "contractName": null,
      "contractAddress": "0xaaf0f531b7947e8492f21862471d61d5305f7538",
      "function": "updateVaultsIssuances(uint48[],uint48[],uint8[])",
      "arguments": [
        "[]",
        "[1]",
        "[255]"
      ],
      "transaction": {
        "from": "0xf39fd6e51aad88f6f4ce6ab8827279cfffb92266",
        "to": "0xaaf0f531b7947e8492f21862471d61d5305f7538",
        "gas": "0x155a4",
        "value": "0x0",
        "input": "0xc39bb8af0000000000000000000000000000000000000000000000000000000000000060000000000000000000000000000000000000000000000000000000000000008000000000000000000000000000000000000000000000000000000000000000c0000000000000000000000000000000000000000000000000000000000000000000000000000000000000000000000000000000000000000000000000000000010000000000000000000000000000000000000000000000000000000000000001000000000000000000000000000000000000000000000000000000000000000100000000000000000000000000000000000000000000000000000000000000ff",
        "nonce": "0x2d0",
        "chainId": "0x1",
        "accessList": null,
        "type": null
      },
      "additionalContracts": [],
      "isFixedGasLimit": false
    }
  ],
  "receipts": [
    {
      "status": "0x1",
      "cumulativeGasUsed": "0xe99a",
      "logs": [
        {
          "address": "0x81f4f47aa3bbd154171c877b4d70f6c9eecab216",
          "topics": [
            "0xc05b4c85e1a9e164c2764407bce9e5955a2e6435dea37ef8c4e62ec458ebf21a",
            "0x0000000000000000000000000000000000000000000000000000000000000001"
          ],
          "data": "0x00000000000000000000000000000000000000000000000000000000000000ff00000000000000000000000000000000000000000000000000000000000000ff",
          "blockHash": "0xa2d24c7ca8592d6e5db433752de493d4ec94f9eb1bec4a75a7a43f571c5be88b",
          "blockNumber": "0x1370e01",
          "blockTimestamp": "0x66a77917",
          "transactionHash": "0xa700be65b5d4f9d6b982b95c10b6847ebe83fc71245d40737d6e8e4bea5143b5",
          "transactionIndex": "0x0",
          "logIndex": "0x0",
          "removed": false
        }
      ],
      "logsBloom": "0x00000000000000000000000000002000000000000000000000000000000000000000000000000000000000000000000000000000000000000000000000040000000000000000000000000000000000000000000000040000000000000000000000000000000000000000000000000000000000000000000000000000000000000000000000000000000000000000000000000000000000000000002000000000000000000000000000000000000000040000000000000000000000000000000002000000000000000000000000000000000000000000000000000100000040000000000000000004000000000000000000000000000000000000000000000000",
      "type": "0x2",
      "transactionHash": "0xa700be65b5d4f9d6b982b95c10b6847ebe83fc71245d40737d6e8e4bea5143b5",
      "transactionIndex": "0x0",
      "blockHash": "0xa2d24c7ca8592d6e5db433752de493d4ec94f9eb1bec4a75a7a43f571c5be88b",
      "blockNumber": "0x1370e01",
      "gasUsed": "0xe99a",
      "effectiveGasPrice": "0x256ebe70",
      "blobGasPrice": "0x1",
      "from": "0xf39fd6e51aad88f6f4ce6ab8827279cfffb92266",
      "to": "0xaaf0f531b7947e8492f21862471d61d5305f7538",
      "contractAddress": null,
      "root": "0x0000000000000000000000000000000000000000000000000000000000000000"
    }
  ],
  "libraries": [],
  "pending": [],
  "returns": {},
  "timestamp": 1722251687,
  "chain": 1,
  "commit": "cef7fa7"
}